{
  "_format": "hh-sol-artifact-1",
  "contractName": "Donation",
  "sourceName": "contracts/Donation.sol",
  "abi": [
    {
      "inputs": [],
      "stateMutability": "payable",
      "type": "constructor"
    },
    {
      "anonymous": false,
      "inputs": [
        {
          "indexed": false,
          "internalType": "uint256",
          "name": "id",
          "type": "uint256"
        },
        {
          "indexed": false,
          "internalType": "string",
          "name": "username",
          "type": "string"
        },
        {
          "indexed": false,
          "internalType": "address payable",
          "name": "walletAddress",
          "type": "address"
        },
        {
          "indexed": false,
          "internalType": "string",
          "name": "ipfsHash",
          "type": "string"
        },
        {
          "indexed": false,
          "internalType": "string",
          "name": "userbio",
          "type": "string"
        },
        {
          "indexed": false,
          "internalType": "uint256",
          "name": "donationsReceived",
          "type": "uint256"
        },
        {
          "indexed": false,
          "internalType": "string",
          "name": "networkOption",
          "type": "string"
        },
        {
          "indexed": false,
          "internalType": "uint256",
          "name": "supporters",
          "type": "uint256"
        }
      ],
      "name": "CreatorEvent",
      "type": "event"
    },
    {
      "anonymous": false,
      "inputs": [
        {
          "indexed": true,
          "internalType": "address",
          "name": "from",
          "type": "address"
        },
        {
          "indexed": false,
          "internalType": "uint256",
          "name": "timestamp",
          "type": "uint256"
        },
        {
          "indexed": false,
          "internalType": "string",
          "name": "message",
          "type": "string"
        }
      ],
      "name": "SupporterEvent",
      "type": "event"
    },
    {
      "inputs": [],
      "name": "contractBal",
      "outputs": [
        {
          "internalType": "uint256",
          "name": "",
          "type": "uint256"
        }
      ],
      "stateMutability": "view",
      "type": "function"
    },
    {
      "inputs": [],
      "name": "contractOwnerWithdraw",
      "outputs": [],
      "stateMutability": "nonpayable",
      "type": "function"
    },
    {
      "inputs": [
        {
          "internalType": "uint256",
          "name": "index",
          "type": "uint256"
        },
        {
          "internalType": "uint256",
          "name": "amount",
          "type": "uint256"
        }
      ],
      "name": "creatorWithdrawTip",
      "outputs": [],
      "stateMutability": "nonpayable",
      "type": "function"
    },
    {
      "inputs": [
        {
          "internalType": "uint256",
          "name": "index",
          "type": "uint256"
        }
      ],
      "name": "getCreatorBal",
      "outputs": [
        {
          "internalType": "uint256",
          "name": "",
          "type": "uint256"
        }
      ],
      "stateMutability": "view",
      "type": "function"
    },
    {
      "inputs": [],
      "name": "getCreatorCount",
      "outputs": [
        {
          "internalType": "uint256",
          "name": "",
          "type": "uint256"
        }
      ],
      "stateMutability": "view",
      "type": "function"
    },
    {
      "inputs": [
        {
          "internalType": "uint256",
          "name": "index",
          "type": "uint256"
        }
      ],
      "name": "getCreatorInfo",
      "outputs": [
        {
          "internalType": "uint256",
          "name": "id",
          "type": "uint256"
        },
        {
          "internalType": "string",
          "name": "",
          "type": "string"
        },
        {
          "internalType": "string",
          "name": "",
          "type": "string"
        },
        {
          "internalType": "address",
          "name": "",
          "type": "address"
        },
        {
          "internalType": "string",
          "name": "",
          "type": "string"
        },
        {
          "internalType": "uint256",
          "name": "",
          "type": "uint256"
        },
        {
          "internalType": "string",
          "name": "",
          "type": "string"
        },
        {
          "internalType": "uint256",
          "name": "",
          "type": "uint256"
        }
      ],
      "stateMutability": "view",
      "type": "function"
    },
    {
      "inputs": [],
      "name": "getCreatorList",
      "outputs": [
        {
          "components": [
            {
              "internalType": "uint256",
              "name": "id",
              "type": "uint256"
            },
            {
              "internalType": "string",
              "name": "username",
              "type": "string"
            },
            {
              "internalType": "string",
              "name": "ipfsHash",
              "type": "string"
            },
            {
              "internalType": "address payable",
              "name": "walletAddress",
              "type": "address"
            },
            {
              "internalType": "string",
              "name": "userbio",
              "type": "string"
            },
            {
              "internalType": "uint256",
              "name": "donationsReceived",
              "type": "uint256"
            },
            {
              "internalType": "string",
              "name": "networkOption",
              "type": "string"
            },
            {
              "internalType": "uint256",
              "name": "supporters",
              "type": "uint256"
            }
          ],
          "internalType": "struct Donation.CreatorInfo[]",
          "name": "",
          "type": "tuple[]"
        }
      ],
      "stateMutability": "view",
      "type": "function"
    },
    {
      "inputs": [
        {
          "internalType": "uint256",
          "name": "_index",
          "type": "uint256"
        }
      ],
      "name": "getCreatorObj",
      "outputs": [
        {
          "components": [
            {
              "internalType": "uint256",
              "name": "id",
              "type": "uint256"
            },
            {
              "internalType": "string",
              "name": "username",
              "type": "string"
            },
            {
              "internalType": "string",
              "name": "ipfsHash",
              "type": "string"
            },
            {
              "internalType": "address payable",
              "name": "walletAddress",
              "type": "address"
            },
            {
              "internalType": "string",
              "name": "userbio",
              "type": "string"
            },
            {
              "internalType": "uint256",
              "name": "donationsReceived",
              "type": "uint256"
            },
            {
              "internalType": "string",
              "name": "networkOption",
              "type": "string"
            },
            {
              "internalType": "uint256",
              "name": "supporters",
              "type": "uint256"
            }
          ],
          "internalType": "struct Donation.CreatorInfo",
          "name": "",
          "type": "tuple"
        }
      ],
      "stateMutability": "view",
      "type": "function"
    },
    {
      "inputs": [
        {
          "internalType": "uint256",
          "name": "index",
          "type": "uint256"
        }
      ],
      "name": "getSupportInfo",
      "outputs": [
        {
          "internalType": "address",
          "name": "_from",
          "type": "address"
        },
        {
          "internalType": "uint256",
          "name": "_timestamp",
          "type": "uint256"
        },
        {
          "internalType": "string",
          "name": "_message",
          "type": "string"
        }
      ],
      "stateMutability": "view",
      "type": "function"
    },
    {
      "inputs": [],
      "name": "getSupporterList",
      "outputs": [
        {
          "components": [
            {
              "internalType": "address",
              "name": "from",
              "type": "address"
            },
            {
              "internalType": "uint256",
              "name": "timestamp",
              "type": "uint256"
            },
            {
              "internalType": "string",
              "name": "message",
              "type": "string"
            }
          ],
          "internalType": "struct Donation.Supporter[]",
          "name": "",
          "type": "tuple[]"
        }
      ],
      "stateMutability": "view",
      "type": "function"
    },
    {
      "inputs": [
        {
          "internalType": "uint256",
          "name": "_index",
          "type": "uint256"
        }
      ],
      "name": "getSupporterObj",
      "outputs": [
        {
          "components": [
            {
              "internalType": "address",
              "name": "from",
              "type": "address"
            },
            {
              "internalType": "uint256",
              "name": "timestamp",
              "type": "uint256"
            },
            {
              "internalType": "string",
              "name": "message",
              "type": "string"
            }
          ],
          "internalType": "struct Donation.Supporter",
          "name": "",
          "type": "tuple"
        }
      ],
      "stateMutability": "view",
      "type": "function"
    },
    {
      "inputs": [],
      "name": "getSupporters",
      "outputs": [
        {
          "internalType": "uint256",
          "name": "",
          "type": "uint256"
        }
      ],
      "stateMutability": "view",
      "type": "function"
    },
    {
      "inputs": [],
      "name": "owner",
      "outputs": [
        {
          "internalType": "address payable",
          "name": "",
          "type": "address"
        }
      ],
      "stateMutability": "view",
      "type": "function"
    },
    {
      "inputs": [
        {
          "internalType": "string",
          "name": "_message",
          "type": "string"
        },
        {
          "internalType": "uint256",
          "name": "_index",
          "type": "uint256"
        }
      ],
      "name": "sendTip",
      "outputs": [],
      "stateMutability": "payable",
      "type": "function"
    },
    {
      "inputs": [
        {
          "internalType": "string",
          "name": "_username",
          "type": "string"
        },
        {
          "internalType": "string",
          "name": "_ipfsHash",
          "type": "string"
        },
        {
          "internalType": "string",
          "name": "_userbio",
          "type": "string"
        },
        {
          "internalType": "string",
          "name": "_networkOption",
          "type": "string"
        }
      ],
      "name": "setCreatorDetail",
      "outputs": [],
      "stateMutability": "nonpayable",
      "type": "function"
    }
  ],
  "bytecode": "0x608060405233600160006101000a81548173ffffffffffffffffffffffffffffffffffffffff021916908373ffffffffffffffffffffffffffffffffffffffff160217905550612b46806100546000396000f3fe6080604052600436106100e85760003560e01c80638da5cb5b1161008a578063d9088afc11610059578063d9088afc14610304578063db9020eb1461031b578063dfe6712e14610346578063e0a57eb814610371576100e8565b80638da5cb5b14610267578063c580ec0a14610292578063c92d7231146102ae578063c9cd30a0146102d9576100e8565b80633985d500116100c65780633985d5001461019757806343020b1a146101d65780634af498a214610201578063746614a81461023e576100e8565b806305860bdc146100ed5780632516f8e61461012a57806325e860a51461016e575b600080fd5b3480156100f957600080fd5b50610114600480360381019061010f9190611984565b6103ae565b6040516101219190611ae1565b60405180910390f35b34801561013657600080fd5b50610151600480360381019061014c9190611984565b6104dc565b604051610165989796959493929190611b6b565b60405180910390f35b34801561017a57600080fd5b5061019560048036038101906101909190611d3a565b6107a0565b005b3480156101a357600080fd5b506101be60048036038101906101b99190611984565b610b04565b6040516101cd93929190611e11565b60405180910390f35b3480156101e257600080fd5b506101eb610bf7565b6040516101f89190611e4f565b60405180910390f35b34801561020d57600080fd5b5061022860048036038101906102239190611984565b610c04565b6040516102359190611f50565b60405180910390f35b34801561024a57600080fd5b5061026560048036038101906102609190611f72565b610efd565b005b34801561027357600080fd5b5061027c6110f6565b6040516102899190611fc1565b60405180910390f35b6102ac60048036038101906102a79190611fdc565b61111c565b005b3480156102ba57600080fd5b506102c36112f1565b6040516102d091906121bf565b60405180910390f35b3480156102e557600080fd5b506102ee61160d565b6040516102fb9190611e4f565b60405180910390f35b34801561031057600080fd5b50610319611615565b005b34801561032757600080fd5b506103306116ec565b60405161033d91906122f3565b60405180910390f35b34801561035257600080fd5b5061035b61183d565b6040516103689190611e4f565b60405180910390f35b34801561037d57600080fd5b5061039860048036038101906103939190611984565b61184a565b6040516103a59190611e4f565b60405180910390f35b6103b66118a8565b600482815481106103ca576103c9612315565b5b90600052602060002090600302016040518060600160405290816000820160009054906101000a900473ffffffffffffffffffffffffffffffffffffffff1673ffffffffffffffffffffffffffffffffffffffff1673ffffffffffffffffffffffffffffffffffffffff1681526020016001820154815260200160028201805461045390612373565b80601f016020809104026020016040519081016040528092919081815260200182805461047f90612373565b80156104cc5780601f106104a1576101008083540402835291602001916104cc565b820191906000526020600020905b8154815290600101906020018083116104af57829003601f168201915b5050505050815250509050919050565b6000606080600060606000606060008060058a81548110610500576104ff612315565b5b90600052602060002090600802019050806000015481600101826002018360030160009054906101000a900473ffffffffffffffffffffffffffffffffffffffff1684600401856005015486600601876007015486805461056090612373565b80601f016020809104026020016040519081016040528092919081815260200182805461058c90612373565b80156105d95780601f106105ae576101008083540402835291602001916105d9565b820191906000526020600020905b8154815290600101906020018083116105bc57829003601f168201915b505050505096508580546105ec90612373565b80601f016020809104026020016040519081016040528092919081815260200182805461061890612373565b80156106655780601f1061063a57610100808354040283529160200191610665565b820191906000526020600020905b81548152906001019060200180831161064857829003601f168201915b5050505050955083805461067890612373565b80601f01602080910402602001604051908101604052809291908181526020018280546106a490612373565b80156106f15780601f106106c6576101008083540402835291602001916106f1565b820191906000526020600020905b8154815290600101906020018083116106d457829003601f168201915b5050505050935081805461070490612373565b80601f016020809104026020016040519081016040528092919081815260200182805461073090612373565b801561077d5780601f106107525761010080835404028352916020019161077d565b820191906000526020600020905b81548152906001019060200180831161076057829003601f168201915b505050505091509850985098509850985098509850985050919395975091939597565b60008451116107ae57600080fd5b60008351116107bc57600080fd5b60008251116107ca57600080fd5b60008060001515600260003373ffffffffffffffffffffffffffffffffffffffff1673ffffffffffffffffffffffffffffffffffffffff16815260200190815260200160002060009054906101000a900460ff16151514610860576040517f08c379a0000000000000000000000000000000000000000000000000000000008152600401610857906123f0565b60405180910390fd5b60001515600387604051610874919061244c565b908152602001604051809103902060009054906101000a900460ff161515146108d2576040517f08c379a00000000000000000000000000000000000000000000000000000000081526004016108c9906124af565b60405180910390fd5b6108dc6000611884565b60056040518061010001604052806108f4600061189a565b81526020018881526020018781526020013373ffffffffffffffffffffffffffffffffffffffff16815260200186815260200184815260200185815260200183815250908060018154018082558091505060019003906000526020600020906008020160009091909190915060008201518160000155602082015181600101908161097f919061267b565b506040820151816002019081610995919061267b565b5060608201518160030160006101000a81548173ffffffffffffffffffffffffffffffffffffffff021916908373ffffffffffffffffffffffffffffffffffffffff16021790555060808201518160040190816109f2919061267b565b5060a0820151816005015560c0820151816006019081610a12919061267b565b5060e0820151816007015550506001600260003373ffffffffffffffffffffffffffffffffffffffff1673ffffffffffffffffffffffffffffffffffffffff16815260200190815260200160002060006101000a81548160ff0219169083151502179055506001600387604051610a89919061244c565b908152602001604051809103902060006101000a81548160ff0219169083151502179055507f1f2b5d1f5852ee1b568a3ab56bde183bd34ea4e92ab3875e469e846dbcfc406e610ad9600061189a565b87338888878988604051610af498979695949392919061274d565b60405180910390a1505050505050565b6000806060600060048581548110610b1f57610b1e612315565b5b906000526020600020906003020190508060000160009054906101000a900473ffffffffffffffffffffffffffffffffffffffff16816001015482600201808054610b6990612373565b80601f0160208091040260200160405190810160405280929190818152602001828054610b9590612373565b8015610be25780601f10610bb757610100808354040283529160200191610be2565b820191906000526020600020905b815481529060010190602001808311610bc557829003601f168201915b50505050509050935093509350509193909250565b6000600480549050905090565b610c0c6118df565b60058281548110610c2057610c1f612315565b5b90600052602060002090600802016040518061010001604052908160008201548152602001600182018054610c5490612373565b80601f0160208091040260200160405190810160405280929190818152602001828054610c8090612373565b8015610ccd5780601f10610ca257610100808354040283529160200191610ccd565b820191906000526020600020905b815481529060010190602001808311610cb057829003601f168201915b50505050508152602001600282018054610ce690612373565b80601f0160208091040260200160405190810160405280929190818152602001828054610d1290612373565b8015610d5f5780601f10610d3457610100808354040283529160200191610d5f565b820191906000526020600020905b815481529060010190602001808311610d4257829003601f168201915b505050505081526020016003820160009054906101000a900473ffffffffffffffffffffffffffffffffffffffff1673ffffffffffffffffffffffffffffffffffffffff1673ffffffffffffffffffffffffffffffffffffffff168152602001600482018054610dce90612373565b80601f0160208091040260200160405190810160405280929190818152602001828054610dfa90612373565b8015610e475780601f10610e1c57610100808354040283529160200191610e47565b820191906000526020600020905b815481529060010190602001808311610e2a57829003601f168201915b5050505050815260200160058201548152602001600682018054610e6a90612373565b80601f0160208091040260200160405190810160405280929190818152602001828054610e9690612373565b8015610ee35780601f10610eb857610100808354040283529160200191610ee3565b820191906000526020600020905b815481529060010190602001808311610ec657829003601f168201915b505050505081526020016007820154815250509050919050565b600060058381548110610f1357610f12612315565b5b9060005260206000209060080201905060008160050154905060008260030160009054906101000a900473ffffffffffffffffffffffffffffffffffffffff1690508360058681548110610f6a57610f69612315565b5b90600052602060002090600802016005016000828254610f8a9190612816565b9250508190555081841115610fd4576040517f08c379a0000000000000000000000000000000000000000000000000000000008152600401610fcb90612896565b60405180910390fd5b8073ffffffffffffffffffffffffffffffffffffffff163373ffffffffffffffffffffffffffffffffffffffff1614611042576040517f08c379a000000000000000000000000000000000000000000000000000000000815260040161103990612902565b60405180910390fd5b60008173ffffffffffffffffffffffffffffffffffffffff168560405161106890612953565b60006040518083038185875af1925050503d80600081146110a5576040519150601f19603f3d011682016040523d82523d6000602084013e6110aa565b606091505b50509050806110ee576040517f08c379a00000000000000000000000000000000000000000000000000000000081526004016110e5906129b4565b60405180910390fd5b505050505050565b600160009054906101000a900473ffffffffffffffffffffffffffffffffffffffff1681565b346005828154811061113157611130612315565b5b9060005260206000209060080201600501600082825461115191906129d4565b9250508190555060016005828154811061116e5761116d612315565b5b9060005260206000209060080201600701600082825461118e91906129d4565b92505081905550600034116111d8576040517f08c379a00000000000000000000000000000000000000000000000000000000081526004016111cf90612a54565b60405180910390fd5b600460405180606001604052803373ffffffffffffffffffffffffffffffffffffffff16815260200142815260200184815250908060018154018082558091505060019003906000526020600020906003020160009091909190915060008201518160000160006101000a81548173ffffffffffffffffffffffffffffffffffffffff021916908373ffffffffffffffffffffffffffffffffffffffff16021790555060208201518160010155604082015181600201908161129a919061267b565b5050503373ffffffffffffffffffffffffffffffffffffffff167fd6a897edbe2f5bae63386e323f717069a8974221d9297299ac544cace2d0f99242846040516112e5929190612a74565b60405180910390a25050565b60606005805480602002602001604051908101604052809291908181526020016000905b828210156116045783829060005260206000209060080201604051806101000160405290816000820154815260200160018201805461135390612373565b80601f016020809104026020016040519081016040528092919081815260200182805461137f90612373565b80156113cc5780601f106113a1576101008083540402835291602001916113cc565b820191906000526020600020905b8154815290600101906020018083116113af57829003601f168201915b505050505081526020016002820180546113e590612373565b80601f016020809104026020016040519081016040528092919081815260200182805461141190612373565b801561145e5780601f106114335761010080835404028352916020019161145e565b820191906000526020600020905b81548152906001019060200180831161144157829003601f168201915b505050505081526020016003820160009054906101000a900473ffffffffffffffffffffffffffffffffffffffff1673ffffffffffffffffffffffffffffffffffffffff1673ffffffffffffffffffffffffffffffffffffffff1681526020016004820180546114cd90612373565b80601f01602080910402602001604051908101604052809291908181526020018280546114f990612373565b80156115465780601f1061151b57610100808354040283529160200191611546565b820191906000526020600020905b81548152906001019060200180831161152957829003601f168201915b505050505081526020016005820154815260200160068201805461156990612373565b80601f016020809104026020016040519081016040528092919081815260200182805461159590612373565b80156115e25780601f106115b7576101008083540402835291602001916115e2565b820191906000526020600020905b8154815290600101906020018083116115c557829003601f168201915b5050505050815260200160078201548152505081526020019060010190611315565b50505050905090565b600047905090565b60004790506000600160009054906101000a900473ffffffffffffffffffffffffffffffffffffffff1673ffffffffffffffffffffffffffffffffffffffff168260405161166290612953565b60006040518083038185875af1925050503d806000811461169f576040519150601f19603f3d011682016040523d82523d6000602084013e6116a4565b606091505b50509050806116e8576040517f08c379a00000000000000000000000000000000000000000000000000000000081526004016116df90612af0565b60405180910390fd5b5050565b60606004805480602002602001604051908101604052809291908181526020016000905b8282101561183457838290600052602060002090600302016040518060600160405290816000820160009054906101000a900473ffffffffffffffffffffffffffffffffffffffff1673ffffffffffffffffffffffffffffffffffffffff1673ffffffffffffffffffffffffffffffffffffffff168152602001600182015481526020016002820180546117a390612373565b80601f01602080910402602001604051908101604052809291908181526020018280546117cf90612373565b801561181c5780601f106117f15761010080835404028352916020019161181c565b820191906000526020600020905b8154815290600101906020018083116117ff57829003601f168201915b50505050508152505081526020019060010190611710565b50505050905090565b6000600580549050905090565b6000806005838154811061186157611860612315565b5b906000526020600020906008020190506000816005015490508092505050919050565b6001816000016000828254019250508190555050565b600081600001549050919050565b6040518060600160405280600073ffffffffffffffffffffffffffffffffffffffff16815260200160008152602001606081525090565b604051806101000160405280600081526020016060815260200160608152602001600073ffffffffffffffffffffffffffffffffffffffff168152602001606081526020016000815260200160608152602001600081525090565b6000604051905090565b600080fd5b600080fd5b6000819050919050565b6119618161194e565b811461196c57600080fd5b50565b60008135905061197e81611958565b92915050565b60006020828403121561199a57611999611944565b5b60006119a88482850161196f565b91505092915050565b600073ffffffffffffffffffffffffffffffffffffffff82169050919050565b60006119dc826119b1565b9050919050565b6119ec816119d1565b82525050565b6119fb8161194e565b82525050565b600081519050919050565b600082825260208201905092915050565b60005b83811015611a3b578082015181840152602081019050611a20565b60008484015250505050565b6000601f19601f8301169050919050565b6000611a6382611a01565b611a6d8185611a0c565b9350611a7d818560208601611a1d565b611a8681611a47565b840191505092915050565b6000606083016000830151611aa960008601826119e3565b506020830151611abc60208601826119f2565b5060408301518482036040860152611ad48282611a58565b9150508091505092915050565b60006020820190508181036000830152611afb8184611a91565b905092915050565b611b0c8161194e565b82525050565b600082825260208201905092915050565b6000611b2e82611a01565b611b388185611b12565b9350611b48818560208601611a1d565b611b5181611a47565b840191505092915050565b611b65816119d1565b82525050565b600061010082019050611b81600083018b611b03565b8181036020830152611b93818a611b23565b90508181036040830152611ba78189611b23565b9050611bb66060830188611b5c565b8181036080830152611bc88187611b23565b9050611bd760a0830186611b03565b81810360c0830152611be98185611b23565b9050611bf860e0830184611b03565b9998505050505050505050565b600080fd5b600080fd5b7f4e487b7100000000000000000000000000000000000000000000000000000000600052604160045260246000fd5b611c4782611a47565b810181811067ffffffffffffffff82111715611c6657611c65611c0f565b5b80604052505050565b6000611c7961193a565b9050611c858282611c3e565b919050565b600067ffffffffffffffff821115611ca557611ca4611c0f565b5b611cae82611a47565b9050602081019050919050565b82818337600083830152505050565b6000611cdd611cd884611c8a565b611c6f565b905082815260208101848484011115611cf957611cf8611c0a565b5b611d04848285611cbb565b509392505050565b600082601f830112611d2157611d20611c05565b5b8135611d31848260208601611cca565b91505092915050565b60008060008060808587031215611d5457611d53611944565b5b600085013567ffffffffffffffff811115611d7257611d71611949565b5b611d7e87828801611d0c565b945050602085013567ffffffffffffffff811115611d9f57611d9e611949565b5b611dab87828801611d0c565b935050604085013567ffffffffffffffff811115611dcc57611dcb611949565b5b611dd887828801611d0c565b925050606085013567ffffffffffffffff811115611df957611df8611949565b5b611e0587828801611d0c565b91505092959194509250565b6000606082019050611e266000830186611b5c565b611e336020830185611b03565b8181036040830152611e458184611b23565b9050949350505050565b6000602082019050611e646000830184611b03565b92915050565b6000611e75826119b1565b9050919050565b611e8581611e6a565b82525050565b600061010083016000830151611ea460008601826119f2565b5060208301518482036020860152611ebc8282611a58565b91505060408301518482036040860152611ed68282611a58565b9150506060830151611eeb6060860182611e7c565b5060808301518482036080860152611f038282611a58565b91505060a0830151611f1860a08601826119f2565b5060c083015184820360c0860152611f308282611a58565b91505060e0830151611f4560e08601826119f2565b508091505092915050565b60006020820190508181036000830152611f6a8184611e8b565b905092915050565b60008060408385031215611f8957611f88611944565b5b6000611f978582860161196f565b9250506020611fa88582860161196f565b9150509250929050565b611fbb81611e6a565b82525050565b6000602082019050611fd66000830184611fb2565b92915050565b60008060408385031215611ff357611ff2611944565b5b600083013567ffffffffffffffff81111561201157612010611949565b5b61201d85828601611d0c565b925050602061202e8582860161196f565b9150509250929050565b600081519050919050565b600082825260208201905092915050565b6000819050602082019050919050565b60006101008301600083015161207d60008601826119f2565b50602083015184820360208601526120958282611a58565b915050604083015184820360408601526120af8282611a58565b91505060608301516120c46060860182611e7c565b50608083015184820360808601526120dc8282611a58565b91505060a08301516120f160a08601826119f2565b5060c083015184820360c08601526121098282611a58565b91505060e083015161211e60e08601826119f2565b508091505092915050565b60006121358383612064565b905092915050565b6000602082019050919050565b600061215582612038565b61215f8185612043565b93508360208202850161217185612054565b8060005b858110156121ad578484038952815161218e8582612129565b94506121998361213d565b925060208a01995050600181019050612175565b50829750879550505050505092915050565b600060208201905081810360008301526121d9818461214a565b905092915050565b600081519050919050565b600082825260208201905092915050565b6000819050602082019050919050565b600060608301600083015161222560008601826119e3565b50602083015161223860208601826119f2565b50604083015184820360408601526122508282611a58565b9150508091505092915050565b6000612269838361220d565b905092915050565b6000602082019050919050565b6000612289826121e1565b61229381856121ec565b9350836020820285016122a5856121fd565b8060005b858110156122e157848403895281516122c2858261225d565b94506122cd83612271565b925060208a019950506001810190506122a9565b50829750879550505050505092915050565b6000602082019050818103600083015261230d818461227e565b905092915050565b7f4e487b7100000000000000000000000000000000000000000000000000000000600052603260045260246000fd5b7f4e487b7100000000000000000000000000000000000000000000000000000000600052602260045260246000fd5b6000600282049050600182168061238b57607f821691505b60208210810361239e5761239d612344565b5b50919050565b7f4164647265737320616c72656164792065786973740000000000000000000000600082015250565b60006123da601583611b12565b91506123e5826123a4565b602082019050919050565b60006020820190508181036000830152612409816123cd565b9050919050565b600081905092915050565b600061242682611a01565b6124308185612410565b9350612440818560208601611a1d565b80840191505092915050565b6000612458828461241b565b915081905092915050565b7f557365726e616d6520616c726561647920657869737400000000000000000000600082015250565b6000612499601683611b12565b91506124a482612463565b602082019050919050565b600060208201905081810360008301526124c88161248c565b9050919050565b60008190508160005260206000209050919050565b60006020601f8301049050919050565b600082821b905092915050565b6000600883026125317fffffffffffffffffffffffffffffffffffffffffffffffffffffffffffffffff826124f4565b61253b86836124f4565b95508019841693508086168417925050509392505050565b6000819050919050565b600061257861257361256e8461194e565b612553565b61194e565b9050919050565b6000819050919050565b6125928361255d565b6125a661259e8261257f565b848454612501565b825550505050565b600090565b6125bb6125ae565b6125c6818484612589565b505050565b5b818110156125ea576125df6000826125b3565b6001810190506125cc565b5050565b601f82111561262f57612600816124cf565b612609846124e4565b81016020851015612618578190505b61262c612624856124e4565b8301826125cb565b50505b505050565b600082821c905092915050565b600061265260001984600802612634565b1980831691505092915050565b600061266b8383612641565b9150826002028217905092915050565b61268482611a01565b67ffffffffffffffff81111561269d5761269c611c0f565b5b6126a78254612373565b6126b28282856125ee565b600060209050601f8311600181146126e557600084156126d3578287015190505b6126dd858261265f565b865550612745565b601f1984166126f3866124cf565b60005b8281101561271b578489015182556001820191506020850194506020810190506126f6565b868310156127385784890151612734601f891682612641565b8355505b6001600288020188555050505b505050505050565b600061010082019050612763600083018b611b03565b8181036020830152612775818a611b23565b90506127846040830189611fb2565b81810360608301526127968188611b23565b905081810360808301526127aa8187611b23565b90506127b960a0830186611b03565b81810360c08301526127cb8185611b23565b90506127da60e0830184611b03565b9998505050505050505050565b7f4e487b7100000000000000000000000000000000000000000000000000000000600052601160045260246000fd5b60006128218261194e565b915061282c8361194e565b9250828203905081811115612844576128436127e7565b5b92915050565b7f496e73756666696369656e742062616c00000000000000000000000000000000600082015250565b6000612880601083611b12565b915061288b8261284a565b602082019050919050565b600060208201905081810360008301526128af81612873565b9050919050565b7f596f7520617265206e6f74207468652063726561746f72000000000000000000600082015250565b60006128ec601783611b12565b91506128f7826128b6565b602082019050919050565b6000602082019050818103600083015261291b816128df565b9050919050565b600081905092915050565b50565b600061293d600083612922565b91506129488261292d565b600082019050919050565b600061295e82612930565b9150819050919050565b7f4661696c656420746f2073656e64204574686572000000000000000000000000600082015250565b600061299e601483611b12565b91506129a982612968565b602082019050919050565b600060208201905081810360008301526129cd81612991565b9050919050565b60006129df8261194e565b91506129ea8361194e565b9250828201905080821115612a0257612a016127e7565b5b92915050565b7f496e73756666696369656e742062616c616e6365210000000000000000000000600082015250565b6000612a3e601583611b12565b9150612a4982612a08565b602082019050919050565b60006020820190508181036000830152612a6d81612a31565b9050919050565b6000604082019050612a896000830185611b03565b8181036020830152612a9b8184611b23565b90509392505050565b7f4661696c656420746f2073656e64206574686572000000000000000000000000600082015250565b6000612ada601483611b12565b9150612ae582612aa4565b602082019050919050565b60006020820190508181036000830152612b0981612acd565b905091905056fea2646970667358221220f024e543d9a2a120388718be9a60faf0ef4a984be320d2252cc03b676600ee2464736f6c63430008110033",
  "linkReferences": {},
  "deployedLinkReferences": {}
}