{
  "_format": "hh-sol-artifact-1",
  "contractName": "Donation",
  "sourceName": "contracts/Donation.sol",
  "abi": [
    {
      "inputs": [],
      "stateMutability": "payable",
      "type": "constructor"
    },
    {
      "inputs": [
        {
          "internalType": "string",
          "name": "message",
          "type": "string"
        }
      ],
      "name": "CreatorAlreadyExist",
      "type": "error"
    },
    {
      "anonymous": false,
      "inputs": [
        {
          "indexed": false,
          "internalType": "string",
          "name": "username",
          "type": "string"
        },
        {
          "indexed": false,
          "internalType": "address payable",
          "name": "walletAddress",
          "type": "address"
        },
        {
          "indexed": false,
          "internalType": "string",
          "name": "profilePix",
          "type": "string"
        },
        {
          "indexed": false,
          "internalType": "string",
          "name": "userbio",
          "type": "string"
        },
        {
          "indexed": false,
          "internalType": "uint256",
          "name": "donationsReceived",
          "type": "uint256"
        },
        {
          "indexed": false,
          "internalType": "string",
          "name": "networkOption",
          "type": "string"
        },
        {
          "indexed": false,
          "internalType": "uint256",
          "name": "supporters",
          "type": "uint256"
        }
      ],
      "name": "CreatorEvent",
      "type": "event"
    },
    {
      "anonymous": false,
      "inputs": [
        {
          "indexed": true,
          "internalType": "address",
          "name": "from",
          "type": "address"
        },
        {
          "indexed": false,
          "internalType": "uint256",
          "name": "timestamp",
          "type": "uint256"
        },
        {
          "indexed": false,
          "internalType": "string",
          "name": "message",
          "type": "string"
        }
      ],
      "name": "SupporterEvent",
      "type": "event"
    },
    {
      "inputs": [],
      "name": "contractBal",
      "outputs": [
        {
          "internalType": "uint256",
          "name": "",
          "type": "uint256"
        }
      ],
      "stateMutability": "view",
      "type": "function"
    },
    {
      "inputs": [],
      "name": "contractOwnerWithdraw",
      "outputs": [],
      "stateMutability": "nonpayable",
      "type": "function"
    },
    {
      "inputs": [
        {
          "internalType": "uint256",
          "name": "index",
          "type": "uint256"
        },
        {
          "internalType": "uint256",
          "name": "amount",
          "type": "uint256"
        },
        {
          "internalType": "address payable",
          "name": "receipient",
          "type": "address"
        }
      ],
      "name": "creatorWithdrawTip",
      "outputs": [],
      "stateMutability": "nonpayable",
      "type": "function"
    },
    {
      "inputs": [],
      "name": "getAllCreators",
      "outputs": [
        {
          "internalType": "uint256",
          "name": "",
          "type": "uint256"
        }
      ],
      "stateMutability": "view",
      "type": "function"
    },
    {
      "inputs": [
        {
          "internalType": "uint256",
          "name": "index",
          "type": "uint256"
        }
      ],
      "name": "getCreatorBal",
      "outputs": [
        {
          "internalType": "uint256",
          "name": "",
          "type": "uint256"
        }
      ],
      "stateMutability": "view",
      "type": "function"
    },
    {
      "inputs": [
        {
          "internalType": "uint256",
          "name": "index",
          "type": "uint256"
        }
      ],
      "name": "getCreatorInfo",
      "outputs": [
        {
          "internalType": "string",
          "name": "",
          "type": "string"
        },
        {
          "internalType": "string",
          "name": "",
          "type": "string"
        },
        {
          "internalType": "address",
          "name": "",
          "type": "address"
        },
        {
          "internalType": "string",
          "name": "",
          "type": "string"
        },
        {
          "internalType": "uint256",
          "name": "",
          "type": "uint256"
        },
        {
          "internalType": "string",
          "name": "",
          "type": "string"
        }
      ],
      "stateMutability": "view",
      "type": "function"
    },
    {
      "inputs": [],
      "name": "getCreatorList",
      "outputs": [
        {
          "components": [
            {
              "internalType": "string",
              "name": "username",
              "type": "string"
            },
            {
              "internalType": "string",
              "name": "profilePix",
              "type": "string"
            },
            {
              "internalType": "address payable",
              "name": "walletAddress",
              "type": "address"
            },
            {
              "internalType": "string",
              "name": "userbio",
              "type": "string"
            },
            {
              "internalType": "uint256",
              "name": "donationsReceived",
              "type": "uint256"
            },
            {
              "internalType": "bool",
              "name": "isExist",
              "type": "bool"
            },
            {
              "internalType": "string",
              "name": "networkOption",
              "type": "string"
            },
            {
              "internalType": "uint256",
              "name": "supporters",
              "type": "uint256"
            }
          ],
          "internalType": "struct Donation.CreatorInfo[]",
          "name": "",
          "type": "tuple[]"
        }
      ],
      "stateMutability": "view",
      "type": "function"
    },
    {
      "inputs": [
        {
          "internalType": "uint256",
          "name": "_index",
          "type": "uint256"
        }
      ],
      "name": "getCreatorObj",
      "outputs": [
        {
          "components": [
            {
              "internalType": "string",
              "name": "username",
              "type": "string"
            },
            {
              "internalType": "string",
              "name": "profilePix",
              "type": "string"
            },
            {
              "internalType": "address payable",
              "name": "walletAddress",
              "type": "address"
            },
            {
              "internalType": "string",
              "name": "userbio",
              "type": "string"
            },
            {
              "internalType": "uint256",
              "name": "donationsReceived",
              "type": "uint256"
            },
            {
              "internalType": "bool",
              "name": "isExist",
              "type": "bool"
            },
            {
              "internalType": "string",
              "name": "networkOption",
              "type": "string"
            },
            {
              "internalType": "uint256",
              "name": "supporters",
              "type": "uint256"
            }
          ],
          "internalType": "struct Donation.CreatorInfo",
          "name": "",
          "type": "tuple"
        }
      ],
      "stateMutability": "view",
      "type": "function"
    },
    {
      "inputs": [
        {
          "internalType": "uint256",
          "name": "index",
          "type": "uint256"
        }
      ],
      "name": "getSupportInfo",
      "outputs": [
        {
          "internalType": "address",
          "name": "_from",
          "type": "address"
        },
        {
          "internalType": "uint256",
          "name": "_timestamp",
          "type": "uint256"
        },
        {
          "internalType": "string",
          "name": "_message",
          "type": "string"
        }
      ],
      "stateMutability": "view",
      "type": "function"
    },
    {
      "inputs": [],
      "name": "getSupporterList",
      "outputs": [
        {
          "components": [
            {
              "internalType": "address",
              "name": "from",
              "type": "address"
            },
            {
              "internalType": "uint256",
              "name": "timestamp",
              "type": "uint256"
            },
            {
              "internalType": "string",
              "name": "message",
              "type": "string"
            }
          ],
          "internalType": "struct Donation.Supporter[]",
          "name": "",
          "type": "tuple[]"
        }
      ],
      "stateMutability": "view",
      "type": "function"
    },
    {
      "inputs": [
        {
          "internalType": "uint256",
          "name": "_index",
          "type": "uint256"
        }
      ],
      "name": "getSupporterObj",
      "outputs": [
        {
          "components": [
            {
              "internalType": "address",
              "name": "from",
              "type": "address"
            },
            {
              "internalType": "uint256",
              "name": "timestamp",
              "type": "uint256"
            },
            {
              "internalType": "string",
              "name": "message",
              "type": "string"
            }
          ],
          "internalType": "struct Donation.Supporter",
          "name": "",
          "type": "tuple"
        }
      ],
      "stateMutability": "view",
      "type": "function"
    },
    {
      "inputs": [],
      "name": "getSupporters",
      "outputs": [
        {
          "internalType": "uint256",
          "name": "",
          "type": "uint256"
        }
      ],
      "stateMutability": "view",
      "type": "function"
    },
    {
      "inputs": [],
      "name": "owner",
      "outputs": [
        {
          "internalType": "address payable",
          "name": "",
          "type": "address"
        }
      ],
      "stateMutability": "view",
      "type": "function"
    },
    {
      "inputs": [
        {
          "internalType": "string",
          "name": "_message",
          "type": "string"
        },
        {
          "internalType": "uint256",
          "name": "_index",
          "type": "uint256"
        }
      ],
      "name": "sendTip",
      "outputs": [],
      "stateMutability": "payable",
      "type": "function"
    },
    {
      "inputs": [
        {
          "internalType": "string",
          "name": "username",
          "type": "string"
        },
        {
          "internalType": "string",
          "name": "profilePix",
          "type": "string"
        },
        {
          "internalType": "string",
          "name": "userbio",
          "type": "string"
        },
        {
          "internalType": "string",
          "name": "networkOption",
          "type": "string"
        }
      ],
      "name": "setCreatorDetail",
      "outputs": [],
      "stateMutability": "nonpayable",
      "type": "function"
    }
  ],
  "bytecode": "0x6080604052336000806101000a81548173ffffffffffffffffffffffffffffffffffffffff021916908373ffffffffffffffffffffffffffffffffffffffff160217905550612f4f806100536000396000f3fe6080604052600436106100e85760003560e01c80638da5cb5b1161008a578063d9088afc11610059578063d9088afc14610302578063db9020eb14610319578063e0a57eb814610344578063f97fac4d14610381576100e8565b80638da5cb5b14610265578063c580ec0a14610290578063c92d7231146102ac578063c9cd30a0146102d7576100e8565b80633985d500116100c65780633985d5001461019557806343020b1a146101d45780634af498a2146101ff5780637b8c376d1461023c576100e8565b806305860bdc146100ed5780632516f8e61461012a57806325e860a51461016c575b600080fd5b3480156100f957600080fd5b50610114600480360381019061010f9190611c61565b6103ac565b6040516101219190611dbe565b60405180910390f35b34801561013657600080fd5b50610151600480360381019061014c9190611c61565b6104da565b60405161016396959493929190611e48565b60405180910390f35b34801561017857600080fd5b50610193600480360381019061018e9190611ffa565b61078b565b005b3480156101a157600080fd5b506101bc60048036038101906101b79190611c61565b610de3565b6040516101cb939291906120d1565b60405180910390f35b3480156101e057600080fd5b506101e9610ed6565b6040516101f6919061210f565b60405180910390f35b34801561020b57600080fd5b5061022660048036038101906102219190611c61565b610ee3565b604051610233919061222b565b60405180910390f35b34801561024857600080fd5b50610263600480360381019061025e9190612279565b6111ed565b005b34801561027157600080fd5b5061027a6113e7565b60405161028791906122db565b60405180910390f35b6102aa60048036038101906102a591906122f6565b61140b565b005b3480156102b857600080fd5b506102c16115e0565b6040516102ce91906124d9565b60405180910390f35b3480156102e357600080fd5b506102ec61190d565b6040516102f9919061210f565b60405180910390f35b34801561030e57600080fd5b50610317611915565b005b34801561032557600080fd5b5061032e6119eb565b60405161033b919061260d565b60405180910390f35b34801561035057600080fd5b5061036b60048036038101906103669190611c61565b611b3c565b604051610378919061210f565b60405180910390f35b34801561038d57600080fd5b50610396611b76565b6040516103a3919061210f565b60405180910390f35b6103b4611b83565b600382815481106103c8576103c761262f565b5b90600052602060002090600302016040518060600160405290816000820160009054906101000a900473ffffffffffffffffffffffffffffffffffffffff1673ffffffffffffffffffffffffffffffffffffffff1673ffffffffffffffffffffffffffffffffffffffff168152602001600182015481526020016002820180546104519061268d565b80601f016020809104026020016040519081016040528092919081815260200182805461047d9061268d565b80156104ca5780601f1061049f576101008083540402835291602001916104ca565b820191906000526020600020905b8154815290600101906020018083116104ad57829003601f168201915b5050505050815250509050919050565b60608060006060600060606000600488815481106104fb576104fa61262f565b5b9060005260206000209060080201905080600001816001018260020160009054906101000a900473ffffffffffffffffffffffffffffffffffffffff16836003018460040154856006018580546105519061268d565b80601f016020809104026020016040519081016040528092919081815260200182805461057d9061268d565b80156105ca5780601f1061059f576101008083540402835291602001916105ca565b820191906000526020600020905b8154815290600101906020018083116105ad57829003601f168201915b505050505095508480546105dd9061268d565b80601f01602080910402602001604051908101604052809291908181526020018280546106099061268d565b80156106565780601f1061062b57610100808354040283529160200191610656565b820191906000526020600020905b81548152906001019060200180831161063957829003601f168201915b505050505094508280546106699061268d565b80601f01602080910402602001604051908101604052809291908181526020018280546106959061268d565b80156106e25780601f106106b7576101008083540402835291602001916106e2565b820191906000526020600020905b8154815290600101906020018083116106c557829003601f168201915b505050505092508080546106f59061268d565b80601f01602080910402602001604051908101604052809291908181526020018280546107219061268d565b801561076e5780601f106107435761010080835404028352916020019161076e565b820191906000526020600020905b81548152906001019060200180831161075157829003601f168201915b505050505090509650965096509650965096505091939550919395565b60008060001515600160003373ffffffffffffffffffffffffffffffffffffffff1673ffffffffffffffffffffffffffffffffffffffff16815260200190815260200160002060050160009054906101000a900460ff16151514610824576040517f2c95b94000000000000000000000000000000000000000000000000000000000815260040161081b9061270a565b60405180910390fd5b600015156002876040516108389190612766565b908152602001604051809103902060050160009054906101000a900460ff16151514610899576040517f2c95b940000000000000000000000000000000000000000000000000000000008152600401610890906127c9565b60405180910390fd5b60046040518061010001604052808881526020018781526020013373ffffffffffffffffffffffffffffffffffffffff16815260200186815260200184815260200160011515815260200185815260200183815250600160003373ffffffffffffffffffffffffffffffffffffffff1673ffffffffffffffffffffffffffffffffffffffff16815260200190815260200160002060008201518160000190816109429190612995565b5060208201518160010190816109589190612995565b5060408201518160020160006101000a81548173ffffffffffffffffffffffffffffffffffffffff021916908373ffffffffffffffffffffffffffffffffffffffff16021790555060608201518160030190816109b59190612995565b506080820151816004015560a08201518160050160006101000a81548160ff02191690831515021790555060c08201518160060190816109f59190612995565b5060e082015181600701559050908060018154018082558091505060019003906000526020600020906008020160009091909190915060008201816000019081610a3f9190612a7d565b5060018201816001019081610a549190612a7d565b506002820160009054906101000a900473ffffffffffffffffffffffffffffffffffffffff168160020160006101000a81548173ffffffffffffffffffffffffffffffffffffffff021916908373ffffffffffffffffffffffffffffffffffffffff16021790555060038201816003019081610ad09190612a7d565b50600482015481600401556005820160009054906101000a900460ff168160050160006101000a81548160ff02191690831515021790555060068201816006019081610b1c9190612a7d565b5060078201548160070155505060046040518061010001604052808881526020018781526020013373ffffffffffffffffffffffffffffffffffffffff16815260200186815260200184815260200160011515815260200185815260200183815250600288604051610b8e9190612766565b90815260200160405180910390206000820151816000019081610bb19190612995565b506020820151816001019081610bc79190612995565b5060408201518160020160006101000a81548173ffffffffffffffffffffffffffffffffffffffff021916908373ffffffffffffffffffffffffffffffffffffffff1602179055506060820151816003019081610c249190612995565b506080820151816004015560a08201518160050160006101000a81548160ff02191690831515021790555060c0820151816006019081610c649190612995565b5060e082015181600701559050908060018154018082558091505060019003906000526020600020906008020160009091909190915060008201816000019081610cae9190612a7d565b5060018201816001019081610cc39190612a7d565b506002820160009054906101000a900473ffffffffffffffffffffffffffffffffffffffff168160020160006101000a81548173ffffffffffffffffffffffffffffffffffffffff021916908373ffffffffffffffffffffffffffffffffffffffff16021790555060038201816003019081610d3f9190612a7d565b50600482015481600401556005820160009054906101000a900460ff168160050160006101000a81548160ff02191690831515021790555060068201816006019081610d8b9190612a7d565b506007820154816007015550507fed7c5f231e4c74b83ce175238e860104e5bba94ba166c4c3bdb1ec80d0caca8086338787868887604051610dd39796959493929190612b65565b60405180910390a1505050505050565b6000806060600060038581548110610dfe57610dfd61262f565b5b906000526020600020906003020190508060000160009054906101000a900473ffffffffffffffffffffffffffffffffffffffff16816001015482600201808054610e489061268d565b80601f0160208091040260200160405190810160405280929190818152602001828054610e749061268d565b8015610ec15780601f10610e9657610100808354040283529160200191610ec1565b820191906000526020600020905b815481529060010190602001808311610ea457829003601f168201915b50505050509050935093509350509193909250565b6000600380549050905090565b610eeb611bba565b60048281548110610eff57610efe61262f565b5b906000526020600020906008020160405180610100016040529081600082018054610f299061268d565b80601f0160208091040260200160405190810160405280929190818152602001828054610f559061268d565b8015610fa25780601f10610f7757610100808354040283529160200191610fa2565b820191906000526020600020905b815481529060010190602001808311610f8557829003601f168201915b50505050508152602001600182018054610fbb9061268d565b80601f0160208091040260200160405190810160405280929190818152602001828054610fe79061268d565b80156110345780601f1061100957610100808354040283529160200191611034565b820191906000526020600020905b81548152906001019060200180831161101757829003601f168201915b505050505081526020016002820160009054906101000a900473ffffffffffffffffffffffffffffffffffffffff1673ffffffffffffffffffffffffffffffffffffffff1673ffffffffffffffffffffffffffffffffffffffff1681526020016003820180546110a39061268d565b80601f01602080910402602001604051908101604052809291908181526020018280546110cf9061268d565b801561111c5780601f106110f15761010080835404028352916020019161111c565b820191906000526020600020905b8154815290600101906020018083116110ff57829003601f168201915b50505050508152602001600482015481526020016005820160009054906101000a900460ff1615151515815260200160068201805461115a9061268d565b80601f01602080910402602001604051908101604052809291908181526020018280546111869061268d565b80156111d35780601f106111a8576101008083540402835291602001916111d3565b820191906000526020600020905b8154815290600101906020018083116111b657829003601f168201915b505050505081526020016007820154815250509050919050565b6000600484815481106112035761120261262f565b5b9060005260206000209060080201905060008160040154905060008260020160009054906101000a900473ffffffffffffffffffffffffffffffffffffffff169050846004878154811061125a5761125961262f565b5b9060005260206000209060080201600401600082825461127a9190612c1f565b92505081905550818511156112c4576040517f08c379a00000000000000000000000000000000000000000000000000000000081526004016112bb90612c9f565b60405180910390fd5b8073ffffffffffffffffffffffffffffffffffffffff163373ffffffffffffffffffffffffffffffffffffffff1614611332576040517f08c379a000000000000000000000000000000000000000000000000000000000815260040161132990612d0b565b60405180910390fd5b60008473ffffffffffffffffffffffffffffffffffffffff168660405161135890612d5c565b60006040518083038185875af1925050503d8060008114611395576040519150601f19603f3d011682016040523d82523d6000602084013e61139a565b606091505b50509050806113de576040517f08c379a00000000000000000000000000000000000000000000000000000000081526004016113d590612dbd565b60405180910390fd5b50505050505050565b60008054906101000a900473ffffffffffffffffffffffffffffffffffffffff1681565b34600482815481106114205761141f61262f565b5b906000526020600020906008020160040160008282546114409190612ddd565b9250508190555060016004828154811061145d5761145c61262f565b5b9060005260206000209060080201600701600082825461147d9190612ddd565b92505081905550600034116114c7576040517f08c379a00000000000000000000000000000000000000000000000000000000081526004016114be90612e5d565b60405180910390fd5b600360405180606001604052803373ffffffffffffffffffffffffffffffffffffffff16815260200142815260200184815250908060018154018082558091505060019003906000526020600020906003020160009091909190915060008201518160000160006101000a81548173ffffffffffffffffffffffffffffffffffffffff021916908373ffffffffffffffffffffffffffffffffffffffff1602179055506020820151816001015560408201518160020190816115899190612995565b5050503373ffffffffffffffffffffffffffffffffffffffff167fd6a897edbe2f5bae63386e323f717069a8974221d9297299ac544cace2d0f99242846040516115d4929190612e7d565b60405180910390a25050565b60606004805480602002602001604051908101604052809291908181526020016000905b828210156119045783829060005260206000209060080201604051806101000160405290816000820180546116389061268d565b80601f01602080910402602001604051908101604052809291908181526020018280546116649061268d565b80156116b15780601f10611686576101008083540402835291602001916116b1565b820191906000526020600020905b81548152906001019060200180831161169457829003601f168201915b505050505081526020016001820180546116ca9061268d565b80601f01602080910402602001604051908101604052809291908181526020018280546116f69061268d565b80156117435780601f1061171857610100808354040283529160200191611743565b820191906000526020600020905b81548152906001019060200180831161172657829003601f168201915b505050505081526020016002820160009054906101000a900473ffffffffffffffffffffffffffffffffffffffff1673ffffffffffffffffffffffffffffffffffffffff1673ffffffffffffffffffffffffffffffffffffffff1681526020016003820180546117b29061268d565b80601f01602080910402602001604051908101604052809291908181526020018280546117de9061268d565b801561182b5780601f106118005761010080835404028352916020019161182b565b820191906000526020600020905b81548152906001019060200180831161180e57829003601f168201915b50505050508152602001600482015481526020016005820160009054906101000a900460ff161515151581526020016006820180546118699061268d565b80601f01602080910402602001604051908101604052809291908181526020018280546118959061268d565b80156118e25780601f106118b7576101008083540402835291602001916118e2565b820191906000526020600020905b8154815290600101906020018083116118c557829003601f168201915b5050505050815260200160078201548152505081526020019060010190611604565b50505050905090565b600047905090565b600047905060008060009054906101000a900473ffffffffffffffffffffffffffffffffffffffff1673ffffffffffffffffffffffffffffffffffffffff168260405161196190612d5c565b60006040518083038185875af1925050503d806000811461199e576040519150601f19603f3d011682016040523d82523d6000602084013e6119a3565b606091505b50509050806119e7576040517f08c379a00000000000000000000000000000000000000000000000000000000081526004016119de90612ef9565b60405180910390fd5b5050565b60606003805480602002602001604051908101604052809291908181526020016000905b82821015611b3357838290600052602060002090600302016040518060600160405290816000820160009054906101000a900473ffffffffffffffffffffffffffffffffffffffff1673ffffffffffffffffffffffffffffffffffffffff1673ffffffffffffffffffffffffffffffffffffffff16815260200160018201548152602001600282018054611aa29061268d565b80601f0160208091040260200160405190810160405280929190818152602001828054611ace9061268d565b8015611b1b5780601f10611af057610100808354040283529160200191611b1b565b820191906000526020600020905b815481529060010190602001808311611afe57829003601f168201915b50505050508152505081526020019060010190611a0f565b50505050905090565b60008060048381548110611b5357611b5261262f565b5b906000526020600020906008020190506000816004015490508092505050919050565b6000600480549050905090565b6040518060600160405280600073ffffffffffffffffffffffffffffffffffffffff16815260200160008152602001606081525090565b6040518061010001604052806060815260200160608152602001600073ffffffffffffffffffffffffffffffffffffffff168152602001606081526020016000815260200160001515815260200160608152602001600081525090565b6000604051905090565b600080fd5b600080fd5b6000819050919050565b611c3e81611c2b565b8114611c4957600080fd5b50565b600081359050611c5b81611c35565b92915050565b600060208284031215611c7757611c76611c21565b5b6000611c8584828501611c4c565b91505092915050565b600073ffffffffffffffffffffffffffffffffffffffff82169050919050565b6000611cb982611c8e565b9050919050565b611cc981611cae565b82525050565b611cd881611c2b565b82525050565b600081519050919050565b600082825260208201905092915050565b60005b83811015611d18578082015181840152602081019050611cfd565b60008484015250505050565b6000601f19601f8301169050919050565b6000611d4082611cde565b611d4a8185611ce9565b9350611d5a818560208601611cfa565b611d6381611d24565b840191505092915050565b6000606083016000830151611d866000860182611cc0565b506020830151611d996020860182611ccf565b5060408301518482036040860152611db18282611d35565b9150508091505092915050565b60006020820190508181036000830152611dd88184611d6e565b905092915050565b600082825260208201905092915050565b6000611dfc82611cde565b611e068185611de0565b9350611e16818560208601611cfa565b611e1f81611d24565b840191505092915050565b611e3381611cae565b82525050565b611e4281611c2b565b82525050565b600060c0820190508181036000830152611e628189611df1565b90508181036020830152611e768188611df1565b9050611e856040830187611e2a565b8181036060830152611e978186611df1565b9050611ea66080830185611e39565b81810360a0830152611eb88184611df1565b9050979650505050505050565b600080fd5b600080fd5b7f4e487b7100000000000000000000000000000000000000000000000000000000600052604160045260246000fd5b611f0782611d24565b810181811067ffffffffffffffff82111715611f2657611f25611ecf565b5b80604052505050565b6000611f39611c17565b9050611f458282611efe565b919050565b600067ffffffffffffffff821115611f6557611f64611ecf565b5b611f6e82611d24565b9050602081019050919050565b82818337600083830152505050565b6000611f9d611f9884611f4a565b611f2f565b905082815260208101848484011115611fb957611fb8611eca565b5b611fc4848285611f7b565b509392505050565b600082601f830112611fe157611fe0611ec5565b5b8135611ff1848260208601611f8a565b91505092915050565b6000806000806080858703121561201457612013611c21565b5b600085013567ffffffffffffffff81111561203257612031611c26565b5b61203e87828801611fcc565b945050602085013567ffffffffffffffff81111561205f5761205e611c26565b5b61206b87828801611fcc565b935050604085013567ffffffffffffffff81111561208c5761208b611c26565b5b61209887828801611fcc565b925050606085013567ffffffffffffffff8111156120b9576120b8611c26565b5b6120c587828801611fcc565b91505092959194509250565b60006060820190506120e66000830186611e2a565b6120f36020830185611e39565b81810360408301526121058184611df1565b9050949350505050565b60006020820190506121246000830184611e39565b92915050565b600061213582611c8e565b9050919050565b6121458161212a565b82525050565b60008115159050919050565b6121608161214b565b82525050565b60006101008301600083015184820360008601526121848282611d35565b9150506020830151848203602086015261219e8282611d35565b91505060408301516121b3604086018261213c565b50606083015184820360608601526121cb8282611d35565b91505060808301516121e06080860182611ccf565b5060a08301516121f360a0860182612157565b5060c083015184820360c086015261220b8282611d35565b91505060e083015161222060e0860182611ccf565b508091505092915050565b600060208201905081810360008301526122458184612166565b905092915050565b6122568161212a565b811461226157600080fd5b50565b6000813590506122738161224d565b92915050565b60008060006060848603121561229257612291611c21565b5b60006122a086828701611c4c565b93505060206122b186828701611c4c565b92505060406122c286828701612264565b9150509250925092565b6122d58161212a565b82525050565b60006020820190506122f060008301846122cc565b92915050565b6000806040838503121561230d5761230c611c21565b5b600083013567ffffffffffffffff81111561232b5761232a611c26565b5b61233785828601611fcc565b925050602061234885828601611c4c565b9150509250929050565b600081519050919050565b600082825260208201905092915050565b6000819050602082019050919050565b600061010083016000830151848203600086015261239c8282611d35565b915050602083015184820360208601526123b68282611d35565b91505060408301516123cb604086018261213c565b50606083015184820360608601526123e38282611d35565b91505060808301516123f86080860182611ccf565b5060a083015161240b60a0860182612157565b5060c083015184820360c08601526124238282611d35565b91505060e083015161243860e0860182611ccf565b508091505092915050565b600061244f838361237e565b905092915050565b6000602082019050919050565b600061246f82612352565b612479818561235d565b93508360208202850161248b8561236e565b8060005b858110156124c757848403895281516124a88582612443565b94506124b383612457565b925060208a0199505060018101905061248f565b50829750879550505050505092915050565b600060208201905081810360008301526124f38184612464565b905092915050565b600081519050919050565b600082825260208201905092915050565b6000819050602082019050919050565b600060608301600083015161253f6000860182611cc0565b5060208301516125526020860182611ccf565b506040830151848203604086015261256a8282611d35565b9150508091505092915050565b60006125838383612527565b905092915050565b6000602082019050919050565b60006125a3826124fb565b6125ad8185612506565b9350836020820285016125bf85612517565b8060005b858110156125fb57848403895281516125dc8582612577565b94506125e78361258b565b925060208a019950506001810190506125c3565b50829750879550505050505092915050565b600060208201905081810360008301526126278184612598565b905092915050565b7f4e487b7100000000000000000000000000000000000000000000000000000000600052603260045260246000fd5b7f4e487b7100000000000000000000000000000000000000000000000000000000600052602260045260246000fd5b600060028204905060018216806126a557607f821691505b6020821081036126b8576126b761265e565b5b50919050565b7f4163636f756e7420616c72656164792065786973740000000000000000000000600082015250565b60006126f4601583611de0565b91506126ff826126be565b602082019050919050565b60006020820190508181036000830152612723816126e7565b9050919050565b600081905092915050565b600061274082611cde565b61274a818561272a565b935061275a818560208601611cfa565b80840191505092915050565b60006127728284612735565b915081905092915050565b7f557365726e616d6520616c726561647920657869737400000000000000000000600082015250565b60006127b3601683611de0565b91506127be8261277d565b602082019050919050565b600060208201905081810360008301526127e2816127a6565b9050919050565b60008190508160005260206000209050919050565b60006020601f8301049050919050565b600082821b905092915050565b60006008830261284b7fffffffffffffffffffffffffffffffffffffffffffffffffffffffffffffffff8261280e565b612855868361280e565b95508019841693508086168417925050509392505050565b6000819050919050565b600061289261288d61288884611c2b565b61286d565b611c2b565b9050919050565b6000819050919050565b6128ac83612877565b6128c06128b882612899565b84845461281b565b825550505050565b600090565b6128d56128c8565b6128e08184846128a3565b505050565b5b81811015612904576128f96000826128cd565b6001810190506128e6565b5050565b601f8211156129495761291a816127e9565b612923846127fe565b81016020851015612932578190505b61294661293e856127fe565b8301826128e5565b50505b505050565b600082821c905092915050565b600061296c6000198460080261294e565b1980831691505092915050565b6000612985838361295b565b9150826002028217905092915050565b61299e82611cde565b67ffffffffffffffff8111156129b7576129b6611ecf565b5b6129c1825461268d565b6129cc828285612908565b600060209050601f8311600181146129ff57600084156129ed578287015190505b6129f78582612979565b865550612a5f565b601f198416612a0d866127e9565b60005b82811015612a3557848901518255600182019150602085019450602081019050612a10565b86831015612a525784890151612a4e601f89168261295b565b8355505b6001600288020188555050505b505050505050565b600081549050612a768161268d565b9050919050565b818103612a8b575050612b63565b612a9482612a67565b67ffffffffffffffff811115612aad57612aac611ecf565b5b612ab7825461268d565b612ac2828285612908565b6000601f831160018114612af15760008415612adf578287015490505b612ae98582612979565b865550612b5c565b601f198416612aff876127e9565b9650612b0a866127e9565b60005b82811015612b3257848901548255600182019150600185019450602081019050612b0d565b86831015612b4f5784890154612b4b601f89168261295b565b8355505b6001600288020188555050505b5050505050505b565b600060e0820190508181036000830152612b7f818a611df1565b9050612b8e60208301896122cc565b8181036040830152612ba08188611df1565b90508181036060830152612bb48187611df1565b9050612bc36080830186611e39565b81810360a0830152612bd58185611df1565b9050612be460c0830184611e39565b98975050505050505050565b7f4e487b7100000000000000000000000000000000000000000000000000000000600052601160045260246000fd5b6000612c2a82611c2b565b9150612c3583611c2b565b9250828203905081811115612c4d57612c4c612bf0565b5b92915050565b7f496e73756666696369656e742062616c00000000000000000000000000000000600082015250565b6000612c89601083611de0565b9150612c9482612c53565b602082019050919050565b60006020820190508181036000830152612cb881612c7c565b9050919050565b7f596f7520617265206e6f74207468652063726561746f72000000000000000000600082015250565b6000612cf5601783611de0565b9150612d0082612cbf565b602082019050919050565b60006020820190508181036000830152612d2481612ce8565b9050919050565b600081905092915050565b50565b6000612d46600083612d2b565b9150612d5182612d36565b600082019050919050565b6000612d6782612d39565b9150819050919050565b7f4661696c656420746f2073656e64204574686572000000000000000000000000600082015250565b6000612da7601483611de0565b9150612db282612d71565b602082019050919050565b60006020820190508181036000830152612dd681612d9a565b9050919050565b6000612de882611c2b565b9150612df383611c2b565b9250828201905080821115612e0b57612e0a612bf0565b5b92915050565b7f496e73756666696369656e742062616c616e6365210000000000000000000000600082015250565b6000612e47601583611de0565b9150612e5282612e11565b602082019050919050565b60006020820190508181036000830152612e7681612e3a565b9050919050565b6000604082019050612e926000830185611e39565b8181036020830152612ea48184611df1565b90509392505050565b7f4661696c656420746f2073656e64206574686572000000000000000000000000600082015250565b6000612ee3601483611de0565b9150612eee82612ead565b602082019050919050565b60006020820190508181036000830152612f1281612ed6565b905091905056fea264697066735822122054f82d690451d2ec29bee089387ce72da079b512385cd0f8672039430b00094c64736f6c63430008110033",
  "linkReferences": {},
  "deployedLinkReferences": {}
}