{
  "_format": "hh-sol-artifact-1",
  "contractName": "Donation",
  "sourceName": "contracts/Donation.sol",
  "abi": [
    {
      "inputs": [],
      "stateMutability": "payable",
      "type": "constructor"
    },
    {
      "inputs": [
        {
          "internalType": "string",
          "name": "message",
          "type": "string"
        }
      ],
      "name": "CreatorAlreadyExist",
      "type": "error"
    },
    {
      "anonymous": false,
      "inputs": [
        {
          "indexed": false,
          "internalType": "string",
          "name": "username",
          "type": "string"
        },
        {
          "indexed": false,
          "internalType": "address payable",
          "name": "walletAddress",
          "type": "address"
        },
        {
          "indexed": false,
          "internalType": "string",
          "name": "profilePix",
          "type": "string"
        },
        {
          "indexed": false,
          "internalType": "string",
          "name": "userbio",
          "type": "string"
        },
        {
          "indexed": false,
          "internalType": "uint256",
          "name": "donationsReceived",
          "type": "uint256"
        },
        {
          "indexed": false,
          "internalType": "string",
          "name": "networkOption",
          "type": "string"
        }
      ],
      "name": "CreatorEvent",
      "type": "event"
    },
    {
      "anonymous": false,
      "inputs": [
        {
          "indexed": true,
          "internalType": "address",
          "name": "from",
          "type": "address"
        },
        {
          "indexed": false,
          "internalType": "uint256",
          "name": "timestamp",
          "type": "uint256"
        },
        {
          "indexed": false,
          "internalType": "string",
          "name": "message",
          "type": "string"
        }
      ],
      "name": "SupporterEvent",
      "type": "event"
    },
    {
      "inputs": [],
      "name": "contractBal",
      "outputs": [
        {
          "internalType": "uint256",
          "name": "",
          "type": "uint256"
        }
      ],
      "stateMutability": "view",
      "type": "function"
    },
    {
      "inputs": [],
      "name": "contractOwnerWithdraw",
      "outputs": [],
      "stateMutability": "nonpayable",
      "type": "function"
    },
    {
      "inputs": [
        {
          "internalType": "uint256",
          "name": "index",
          "type": "uint256"
        },
        {
          "internalType": "uint256",
          "name": "amount",
          "type": "uint256"
        },
        {
          "internalType": "address payable",
          "name": "receipient",
          "type": "address"
        }
      ],
      "name": "creatorWithdrawTip",
      "outputs": [],
      "stateMutability": "nonpayable",
      "type": "function"
    },
    {
      "inputs": [],
      "name": "getAllCreators",
      "outputs": [
        {
          "internalType": "uint256",
          "name": "",
          "type": "uint256"
        }
      ],
      "stateMutability": "view",
      "type": "function"
    },
    {
      "inputs": [
        {
          "internalType": "uint256",
          "name": "index",
          "type": "uint256"
        }
      ],
      "name": "getCreatorBal",
      "outputs": [
        {
          "internalType": "uint256",
          "name": "",
          "type": "uint256"
        }
      ],
      "stateMutability": "view",
      "type": "function"
    },
    {
      "inputs": [
        {
          "internalType": "uint256",
          "name": "index",
          "type": "uint256"
        }
      ],
      "name": "getCreatorInfo",
      "outputs": [
        {
          "internalType": "string",
          "name": "",
          "type": "string"
        },
        {
          "internalType": "string",
          "name": "",
          "type": "string"
        },
        {
          "internalType": "address",
          "name": "",
          "type": "address"
        },
        {
          "internalType": "string",
          "name": "",
          "type": "string"
        },
        {
          "internalType": "uint256",
          "name": "",
          "type": "uint256"
        },
        {
          "internalType": "string",
          "name": "",
          "type": "string"
        }
      ],
      "stateMutability": "view",
      "type": "function"
    },
    {
      "inputs": [],
      "name": "getCreatorList",
      "outputs": [
        {
          "components": [
            {
              "internalType": "string",
              "name": "username",
              "type": "string"
            },
            {
              "internalType": "string",
              "name": "profilePix",
              "type": "string"
            },
            {
              "internalType": "address payable",
              "name": "walletAddress",
              "type": "address"
            },
            {
              "internalType": "string",
              "name": "userbio",
              "type": "string"
            },
            {
              "internalType": "uint256",
              "name": "donationsReceived",
              "type": "uint256"
            },
            {
              "internalType": "bool",
              "name": "isExist",
              "type": "bool"
            },
            {
              "internalType": "string",
              "name": "networkOption",
              "type": "string"
            }
          ],
          "internalType": "struct Donation.CreatorInfo[]",
          "name": "",
          "type": "tuple[]"
        }
      ],
      "stateMutability": "view",
      "type": "function"
    },
    {
      "inputs": [
        {
          "internalType": "uint256",
          "name": "_index",
          "type": "uint256"
        }
      ],
      "name": "getCreatorObj",
      "outputs": [
        {
          "components": [
            {
              "internalType": "string",
              "name": "username",
              "type": "string"
            },
            {
              "internalType": "string",
              "name": "profilePix",
              "type": "string"
            },
            {
              "internalType": "address payable",
              "name": "walletAddress",
              "type": "address"
            },
            {
              "internalType": "string",
              "name": "userbio",
              "type": "string"
            },
            {
              "internalType": "uint256",
              "name": "donationsReceived",
              "type": "uint256"
            },
            {
              "internalType": "bool",
              "name": "isExist",
              "type": "bool"
            },
            {
              "internalType": "string",
              "name": "networkOption",
              "type": "string"
            }
          ],
          "internalType": "struct Donation.CreatorInfo",
          "name": "",
          "type": "tuple"
        }
      ],
      "stateMutability": "view",
      "type": "function"
    },
    {
      "inputs": [
        {
          "internalType": "uint256",
          "name": "index",
          "type": "uint256"
        }
      ],
      "name": "getSupportInfo",
      "outputs": [
        {
          "internalType": "address",
          "name": "_from",
          "type": "address"
        },
        {
          "internalType": "uint256",
          "name": "_timestamp",
          "type": "uint256"
        },
        {
          "internalType": "string",
          "name": "_message",
          "type": "string"
        }
      ],
      "stateMutability": "view",
      "type": "function"
    },
    {
      "inputs": [],
      "name": "getSupporterList",
      "outputs": [
        {
          "components": [
            {
              "internalType": "address",
              "name": "from",
              "type": "address"
            },
            {
              "internalType": "uint256",
              "name": "timestamp",
              "type": "uint256"
            },
            {
              "internalType": "string",
              "name": "message",
              "type": "string"
            }
          ],
          "internalType": "struct Donation.Supporter[]",
          "name": "",
          "type": "tuple[]"
        }
      ],
      "stateMutability": "view",
      "type": "function"
    },
    {
      "inputs": [
        {
          "internalType": "uint256",
          "name": "_index",
          "type": "uint256"
        }
      ],
      "name": "getSupporterObj",
      "outputs": [
        {
          "components": [
            {
              "internalType": "address",
              "name": "from",
              "type": "address"
            },
            {
              "internalType": "uint256",
              "name": "timestamp",
              "type": "uint256"
            },
            {
              "internalType": "string",
              "name": "message",
              "type": "string"
            }
          ],
          "internalType": "struct Donation.Supporter",
          "name": "",
          "type": "tuple"
        }
      ],
      "stateMutability": "view",
      "type": "function"
    },
    {
      "inputs": [],
      "name": "getSupporters",
      "outputs": [
        {
          "internalType": "uint256",
          "name": "",
          "type": "uint256"
        }
      ],
      "stateMutability": "view",
      "type": "function"
    },
    {
      "inputs": [],
      "name": "owner",
      "outputs": [
        {
          "internalType": "address payable",
          "name": "",
          "type": "address"
        }
      ],
      "stateMutability": "view",
      "type": "function"
    },
    {
      "inputs": [
        {
          "internalType": "string",
          "name": "_message",
          "type": "string"
        },
        {
          "internalType": "uint256",
          "name": "_index",
          "type": "uint256"
        }
      ],
      "name": "sendTip",
      "outputs": [],
      "stateMutability": "payable",
      "type": "function"
    },
    {
      "inputs": [
        {
          "internalType": "string",
          "name": "username",
          "type": "string"
        },
        {
          "internalType": "string",
          "name": "profilePix",
          "type": "string"
        },
        {
          "internalType": "string",
          "name": "userbio",
          "type": "string"
        },
        {
          "internalType": "string",
          "name": "networkOption",
          "type": "string"
        }
      ],
      "name": "setCreatorDetail",
      "outputs": [],
      "stateMutability": "nonpayable",
      "type": "function"
    }
  ],
  "bytecode": "0x6080604052336000806101000a81548173ffffffffffffffffffffffffffffffffffffffff021916908373ffffffffffffffffffffffffffffffffffffffff160217905550612e83806100536000396000f3fe6080604052600436106100e85760003560e01c80638da5cb5b1161008a578063d9088afc11610059578063d9088afc14610302578063db9020eb14610319578063e0a57eb814610344578063f97fac4d14610381576100e8565b80638da5cb5b14610265578063c580ec0a14610290578063c92d7231146102ac578063c9cd30a0146102d7576100e8565b80633985d500116100c65780633985d5001461019557806343020b1a146101d45780634af498a2146101ff5780637b8c376d1461023c576100e8565b806305860bdc146100ed5780632516f8e61461012a57806325e860a51461016c575b600080fd5b3480156100f957600080fd5b50610114600480360381019061010f9190611bcb565b6103ac565b6040516101219190611d28565b60405180910390f35b34801561013657600080fd5b50610151600480360381019061014c9190611bcb565b6104da565b60405161016396959493929190611db2565b60405180910390f35b34801561017857600080fd5b50610193600480360381019061018e9190611f64565b61078b565b005b3480156101a157600080fd5b506101bc60048036038101906101b79190611bcb565b610da8565b6040516101cb9392919061203b565b60405180910390f35b3480156101e057600080fd5b506101e9610e9b565b6040516101f69190612079565b60405180910390f35b34801561020b57600080fd5b5061022660048036038101906102219190611bcb565b610ea8565b6040516102339190612181565b60405180910390f35b34801561024857600080fd5b50610263600480360381019061025e91906121cf565b6111a7565b005b34801561027157600080fd5b5061027a6113a1565b6040516102879190612231565b60405180910390f35b6102aa60048036038101906102a5919061224c565b6113c5565b005b3480156102b857600080fd5b506102c161155d565b6040516102ce919061241b565b60405180910390f35b3480156102e357600080fd5b506102ec61187f565b6040516102f99190612079565b60405180910390f35b34801561030e57600080fd5b50610317611887565b005b34801561032557600080fd5b5061032e61195d565b60405161033b919061254f565b60405180910390f35b34801561035057600080fd5b5061036b60048036038101906103669190611bcb565b611aae565b6040516103789190612079565b60405180910390f35b34801561038d57600080fd5b50610396611ae8565b6040516103a39190612079565b60405180910390f35b6103b4611af5565b600382815481106103c8576103c7612571565b5b90600052602060002090600302016040518060600160405290816000820160009054906101000a900473ffffffffffffffffffffffffffffffffffffffff1673ffffffffffffffffffffffffffffffffffffffff1673ffffffffffffffffffffffffffffffffffffffff16815260200160018201548152602001600282018054610451906125cf565b80601f016020809104026020016040519081016040528092919081815260200182805461047d906125cf565b80156104ca5780601f1061049f576101008083540402835291602001916104ca565b820191906000526020600020905b8154815290600101906020018083116104ad57829003601f168201915b5050505050815250509050919050565b60608060006060600060606000600488815481106104fb576104fa612571565b5b9060005260206000209060070201905080600001816001018260020160009054906101000a900473ffffffffffffffffffffffffffffffffffffffff1683600301846004015485600601858054610551906125cf565b80601f016020809104026020016040519081016040528092919081815260200182805461057d906125cf565b80156105ca5780601f1061059f576101008083540402835291602001916105ca565b820191906000526020600020905b8154815290600101906020018083116105ad57829003601f168201915b505050505095508480546105dd906125cf565b80601f0160208091040260200160405190810160405280929190818152602001828054610609906125cf565b80156106565780601f1061062b57610100808354040283529160200191610656565b820191906000526020600020905b81548152906001019060200180831161063957829003601f168201915b50505050509450828054610669906125cf565b80601f0160208091040260200160405190810160405280929190818152602001828054610695906125cf565b80156106e25780601f106106b7576101008083540402835291602001916106e2565b820191906000526020600020905b8154815290600101906020018083116106c557829003601f168201915b505050505092508080546106f5906125cf565b80601f0160208091040260200160405190810160405280929190818152602001828054610721906125cf565b801561076e5780601f106107435761010080835404028352916020019161076e565b820191906000526020600020905b81548152906001019060200180831161075157829003601f168201915b505050505090509650965096509650965096505091939550919395565b6000801515600160003373ffffffffffffffffffffffffffffffffffffffff1673ffffffffffffffffffffffffffffffffffffffff16815260200190815260200160002060050160009054906101000a900460ff16151514610822576040517f2c95b9400000000000000000000000000000000000000000000000000000000081526004016108199061264c565b60405180910390fd5b6000151560028660405161083691906126a8565b908152602001604051809103902060050160009054906101000a900460ff16151514610897576040517f2c95b94000000000000000000000000000000000000000000000000000000000815260040161088e9061270b565b60405180910390fd5b60046040518060e001604052808781526020018681526020013373ffffffffffffffffffffffffffffffffffffffff16815260200185815260200183815260200160011515815260200184815250600160003373ffffffffffffffffffffffffffffffffffffffff1673ffffffffffffffffffffffffffffffffffffffff168152602001908152602001600020600082015181600001908161093991906128d7565b50602082015181600101908161094f91906128d7565b5060408201518160020160006101000a81548173ffffffffffffffffffffffffffffffffffffffff021916908373ffffffffffffffffffffffffffffffffffffffff16021790555060608201518160030190816109ac91906128d7565b506080820151816004015560a08201518160050160006101000a81548160ff02191690831515021790555060c08201518160060190816109ec91906128d7565b509050908060018154018082558091505060019003906000526020600020906007020160009091909190915060008201816000019081610a2c91906129bf565b5060018201816001019081610a4191906129bf565b506002820160009054906101000a900473ffffffffffffffffffffffffffffffffffffffff168160020160006101000a81548173ffffffffffffffffffffffffffffffffffffffff021916908373ffffffffffffffffffffffffffffffffffffffff16021790555060038201816003019081610abd91906129bf565b50600482015481600401556005820160009054906101000a900460ff168160050160006101000a81548160ff02191690831515021790555060068201816006019081610b0991906129bf565b50505060046040518060e001604052808781526020018681526020013373ffffffffffffffffffffffffffffffffffffffff16815260200185815260200183815260200160011515815260200184815250600287604051610b6a91906126a8565b90815260200160405180910390206000820151816000019081610b8d91906128d7565b506020820151816001019081610ba391906128d7565b5060408201518160020160006101000a81548173ffffffffffffffffffffffffffffffffffffffff021916908373ffffffffffffffffffffffffffffffffffffffff1602179055506060820151816003019081610c0091906128d7565b506080820151816004015560a08201518160050160006101000a81548160ff02191690831515021790555060c0820151816006019081610c4091906128d7565b509050908060018154018082558091505060019003906000526020600020906007020160009091909190915060008201816000019081610c8091906129bf565b5060018201816001019081610c9591906129bf565b506002820160009054906101000a900473ffffffffffffffffffffffffffffffffffffffff168160020160006101000a81548173ffffffffffffffffffffffffffffffffffffffff021916908373ffffffffffffffffffffffffffffffffffffffff16021790555060038201816003019081610d1191906129bf565b50600482015481600401556005820160009054906101000a900460ff168160050160006101000a81548160ff02191690831515021790555060068201816006019081610d5d91906129bf565b5050507ff318a5f39f6ee01b22df38909d174e1b8ac758025eaf6c599a2cb6f37fc227c6853386868587604051610d9996959493929190612aa7565b60405180910390a15050505050565b6000806060600060038581548110610dc357610dc2612571565b5b906000526020600020906003020190508060000160009054906101000a900473ffffffffffffffffffffffffffffffffffffffff16816001015482600201808054610e0d906125cf565b80601f0160208091040260200160405190810160405280929190818152602001828054610e39906125cf565b8015610e865780601f10610e5b57610100808354040283529160200191610e86565b820191906000526020600020905b815481529060010190602001808311610e6957829003601f168201915b50505050509050935093509350509193909250565b6000600380549050905090565b610eb0611b2c565b60048281548110610ec457610ec3612571565b5b90600052602060002090600702016040518060e0016040529081600082018054610eed906125cf565b80601f0160208091040260200160405190810160405280929190818152602001828054610f19906125cf565b8015610f665780601f10610f3b57610100808354040283529160200191610f66565b820191906000526020600020905b815481529060010190602001808311610f4957829003601f168201915b50505050508152602001600182018054610f7f906125cf565b80601f0160208091040260200160405190810160405280929190818152602001828054610fab906125cf565b8015610ff85780601f10610fcd57610100808354040283529160200191610ff8565b820191906000526020600020905b815481529060010190602001808311610fdb57829003601f168201915b505050505081526020016002820160009054906101000a900473ffffffffffffffffffffffffffffffffffffffff1673ffffffffffffffffffffffffffffffffffffffff1673ffffffffffffffffffffffffffffffffffffffff168152602001600382018054611067906125cf565b80601f0160208091040260200160405190810160405280929190818152602001828054611093906125cf565b80156110e05780601f106110b5576101008083540402835291602001916110e0565b820191906000526020600020905b8154815290600101906020018083116110c357829003601f168201915b50505050508152602001600482015481526020016005820160009054906101000a900460ff1615151515815260200160068201805461111e906125cf565b80601f016020809104026020016040519081016040528092919081815260200182805461114a906125cf565b80156111975780601f1061116c57610100808354040283529160200191611197565b820191906000526020600020905b81548152906001019060200180831161117a57829003601f168201915b5050505050815250509050919050565b6000600484815481106111bd576111bc612571565b5b9060005260206000209060070201905060008160040154905060008260020160009054906101000a900473ffffffffffffffffffffffffffffffffffffffff169050846004878154811061121457611213612571565b5b906000526020600020906007020160040160008282546112349190612b53565b925050819055508185111561127e576040517f08c379a000000000000000000000000000000000000000000000000000000000815260040161127590612bd3565b60405180910390fd5b8073ffffffffffffffffffffffffffffffffffffffff163373ffffffffffffffffffffffffffffffffffffffff16146112ec576040517f08c379a00000000000000000000000000000000000000000000000000000000081526004016112e390612c3f565b60405180910390fd5b60008473ffffffffffffffffffffffffffffffffffffffff168660405161131290612c90565b60006040518083038185875af1925050503d806000811461134f576040519150601f19603f3d011682016040523d82523d6000602084013e611354565b606091505b5050905080611398576040517f08c379a000000000000000000000000000000000000000000000000000000000815260040161138f90612cf1565b60405180910390fd5b50505050505050565b60008054906101000a900473ffffffffffffffffffffffffffffffffffffffff1681565b34600482815481106113da576113d9612571565b5b906000526020600020906007020160040160008282546113fa9190612d11565b9250508190555060003411611444576040517f08c379a000000000000000000000000000000000000000000000000000000000815260040161143b90612d91565b60405180910390fd5b600360405180606001604052803373ffffffffffffffffffffffffffffffffffffffff16815260200142815260200184815250908060018154018082558091505060019003906000526020600020906003020160009091909190915060008201518160000160006101000a81548173ffffffffffffffffffffffffffffffffffffffff021916908373ffffffffffffffffffffffffffffffffffffffff16021790555060208201518160010155604082015181600201908161150691906128d7565b5050503373ffffffffffffffffffffffffffffffffffffffff167fd6a897edbe2f5bae63386e323f717069a8974221d9297299ac544cace2d0f9924284604051611551929190612db1565b60405180910390a25050565b60606004805480602002602001604051908101604052809291908181526020016000905b8282101561187657838290600052602060002090600702016040518060e00160405290816000820180546115b4906125cf565b80601f01602080910402602001604051908101604052809291908181526020018280546115e0906125cf565b801561162d5780601f106116025761010080835404028352916020019161162d565b820191906000526020600020905b81548152906001019060200180831161161057829003601f168201915b50505050508152602001600182018054611646906125cf565b80601f0160208091040260200160405190810160405280929190818152602001828054611672906125cf565b80156116bf5780601f10611694576101008083540402835291602001916116bf565b820191906000526020600020905b8154815290600101906020018083116116a257829003601f168201915b505050505081526020016002820160009054906101000a900473ffffffffffffffffffffffffffffffffffffffff1673ffffffffffffffffffffffffffffffffffffffff1673ffffffffffffffffffffffffffffffffffffffff16815260200160038201805461172e906125cf565b80601f016020809104026020016040519081016040528092919081815260200182805461175a906125cf565b80156117a75780601f1061177c576101008083540402835291602001916117a7565b820191906000526020600020905b81548152906001019060200180831161178a57829003601f168201915b50505050508152602001600482015481526020016005820160009054906101000a900460ff161515151581526020016006820180546117e5906125cf565b80601f0160208091040260200160405190810160405280929190818152602001828054611811906125cf565b801561185e5780601f106118335761010080835404028352916020019161185e565b820191906000526020600020905b81548152906001019060200180831161184157829003601f168201915b50505050508152505081526020019060010190611581565b50505050905090565b600047905090565b600047905060008060009054906101000a900473ffffffffffffffffffffffffffffffffffffffff1673ffffffffffffffffffffffffffffffffffffffff16826040516118d390612c90565b60006040518083038185875af1925050503d8060008114611910576040519150601f19603f3d011682016040523d82523d6000602084013e611915565b606091505b5050905080611959576040517f08c379a000000000000000000000000000000000000000000000000000000000815260040161195090612e2d565b60405180910390fd5b5050565b60606003805480602002602001604051908101604052809291908181526020016000905b82821015611aa557838290600052602060002090600302016040518060600160405290816000820160009054906101000a900473ffffffffffffffffffffffffffffffffffffffff1673ffffffffffffffffffffffffffffffffffffffff1673ffffffffffffffffffffffffffffffffffffffff16815260200160018201548152602001600282018054611a14906125cf565b80601f0160208091040260200160405190810160405280929190818152602001828054611a40906125cf565b8015611a8d5780601f10611a6257610100808354040283529160200191611a8d565b820191906000526020600020905b815481529060010190602001808311611a7057829003601f168201915b50505050508152505081526020019060010190611981565b50505050905090565b60008060048381548110611ac557611ac4612571565b5b906000526020600020906007020190506000816004015490508092505050919050565b6000600480549050905090565b6040518060600160405280600073ffffffffffffffffffffffffffffffffffffffff16815260200160008152602001606081525090565b6040518060e001604052806060815260200160608152602001600073ffffffffffffffffffffffffffffffffffffffff1681526020016060815260200160008152602001600015158152602001606081525090565b6000604051905090565b600080fd5b600080fd5b6000819050919050565b611ba881611b95565b8114611bb357600080fd5b50565b600081359050611bc581611b9f565b92915050565b600060208284031215611be157611be0611b8b565b5b6000611bef84828501611bb6565b91505092915050565b600073ffffffffffffffffffffffffffffffffffffffff82169050919050565b6000611c2382611bf8565b9050919050565b611c3381611c18565b82525050565b611c4281611b95565b82525050565b600081519050919050565b600082825260208201905092915050565b60005b83811015611c82578082015181840152602081019050611c67565b60008484015250505050565b6000601f19601f8301169050919050565b6000611caa82611c48565b611cb48185611c53565b9350611cc4818560208601611c64565b611ccd81611c8e565b840191505092915050565b6000606083016000830151611cf06000860182611c2a565b506020830151611d036020860182611c39565b5060408301518482036040860152611d1b8282611c9f565b9150508091505092915050565b60006020820190508181036000830152611d428184611cd8565b905092915050565b600082825260208201905092915050565b6000611d6682611c48565b611d708185611d4a565b9350611d80818560208601611c64565b611d8981611c8e565b840191505092915050565b611d9d81611c18565b82525050565b611dac81611b95565b82525050565b600060c0820190508181036000830152611dcc8189611d5b565b90508181036020830152611de08188611d5b565b9050611def6040830187611d94565b8181036060830152611e018186611d5b565b9050611e106080830185611da3565b81810360a0830152611e228184611d5b565b9050979650505050505050565b600080fd5b600080fd5b7f4e487b7100000000000000000000000000000000000000000000000000000000600052604160045260246000fd5b611e7182611c8e565b810181811067ffffffffffffffff82111715611e9057611e8f611e39565b5b80604052505050565b6000611ea3611b81565b9050611eaf8282611e68565b919050565b600067ffffffffffffffff821115611ecf57611ece611e39565b5b611ed882611c8e565b9050602081019050919050565b82818337600083830152505050565b6000611f07611f0284611eb4565b611e99565b905082815260208101848484011115611f2357611f22611e34565b5b611f2e848285611ee5565b509392505050565b600082601f830112611f4b57611f4a611e2f565b5b8135611f5b848260208601611ef4565b91505092915050565b60008060008060808587031215611f7e57611f7d611b8b565b5b600085013567ffffffffffffffff811115611f9c57611f9b611b90565b5b611fa887828801611f36565b945050602085013567ffffffffffffffff811115611fc957611fc8611b90565b5b611fd587828801611f36565b935050604085013567ffffffffffffffff811115611ff657611ff5611b90565b5b61200287828801611f36565b925050606085013567ffffffffffffffff81111561202357612022611b90565b5b61202f87828801611f36565b91505092959194509250565b60006060820190506120506000830186611d94565b61205d6020830185611da3565b818103604083015261206f8184611d5b565b9050949350505050565b600060208201905061208e6000830184611da3565b92915050565b600061209f82611bf8565b9050919050565b6120af81612094565b82525050565b60008115159050919050565b6120ca816120b5565b82525050565b600060e08301600083015184820360008601526120ed8282611c9f565b915050602083015184820360208601526121078282611c9f565b915050604083015161211c60408601826120a6565b50606083015184820360608601526121348282611c9f565b91505060808301516121496080860182611c39565b5060a083015161215c60a08601826120c1565b5060c083015184820360c08601526121748282611c9f565b9150508091505092915050565b6000602082019050818103600083015261219b81846120d0565b905092915050565b6121ac81612094565b81146121b757600080fd5b50565b6000813590506121c9816121a3565b92915050565b6000806000606084860312156121e8576121e7611b8b565b5b60006121f686828701611bb6565b935050602061220786828701611bb6565b9250506040612218868287016121ba565b9150509250925092565b61222b81612094565b82525050565b60006020820190506122466000830184612222565b92915050565b6000806040838503121561226357612262611b8b565b5b600083013567ffffffffffffffff81111561228157612280611b90565b5b61228d85828601611f36565b925050602061229e85828601611bb6565b9150509250929050565b600081519050919050565b600082825260208201905092915050565b6000819050602082019050919050565b600060e08301600083015184820360008601526122f18282611c9f565b9150506020830151848203602086015261230b8282611c9f565b915050604083015161232060408601826120a6565b50606083015184820360608601526123388282611c9f565b915050608083015161234d6080860182611c39565b5060a083015161236060a08601826120c1565b5060c083015184820360c08601526123788282611c9f565b9150508091505092915050565b600061239183836122d4565b905092915050565b6000602082019050919050565b60006123b1826122a8565b6123bb81856122b3565b9350836020820285016123cd856122c4565b8060005b8581101561240957848403895281516123ea8582612385565b94506123f583612399565b925060208a019950506001810190506123d1565b50829750879550505050505092915050565b6000602082019050818103600083015261243581846123a6565b905092915050565b600081519050919050565b600082825260208201905092915050565b6000819050602082019050919050565b60006060830160008301516124816000860182611c2a565b5060208301516124946020860182611c39565b50604083015184820360408601526124ac8282611c9f565b9150508091505092915050565b60006124c58383612469565b905092915050565b6000602082019050919050565b60006124e58261243d565b6124ef8185612448565b93508360208202850161250185612459565b8060005b8581101561253d578484038952815161251e85826124b9565b9450612529836124cd565b925060208a01995050600181019050612505565b50829750879550505050505092915050565b6000602082019050818103600083015261256981846124da565b905092915050565b7f4e487b7100000000000000000000000000000000000000000000000000000000600052603260045260246000fd5b7f4e487b7100000000000000000000000000000000000000000000000000000000600052602260045260246000fd5b600060028204905060018216806125e757607f821691505b6020821081036125fa576125f96125a0565b5b50919050565b7f4163636f756e7420616c72656164792065786973740000000000000000000000600082015250565b6000612636601583611d4a565b915061264182612600565b602082019050919050565b6000602082019050818103600083015261266581612629565b9050919050565b600081905092915050565b600061268282611c48565b61268c818561266c565b935061269c818560208601611c64565b80840191505092915050565b60006126b48284612677565b915081905092915050565b7f557365726e616d6520616c726561647920657869737400000000000000000000600082015250565b60006126f5601683611d4a565b9150612700826126bf565b602082019050919050565b60006020820190508181036000830152612724816126e8565b9050919050565b60008190508160005260206000209050919050565b60006020601f8301049050919050565b600082821b905092915050565b60006008830261278d7fffffffffffffffffffffffffffffffffffffffffffffffffffffffffffffffff82612750565b6127978683612750565b95508019841693508086168417925050509392505050565b6000819050919050565b60006127d46127cf6127ca84611b95565b6127af565b611b95565b9050919050565b6000819050919050565b6127ee836127b9565b6128026127fa826127db565b84845461275d565b825550505050565b600090565b61281761280a565b6128228184846127e5565b505050565b5b818110156128465761283b60008261280f565b600181019050612828565b5050565b601f82111561288b5761285c8161272b565b61286584612740565b81016020851015612874578190505b61288861288085612740565b830182612827565b50505b505050565b600082821c905092915050565b60006128ae60001984600802612890565b1980831691505092915050565b60006128c7838361289d565b9150826002028217905092915050565b6128e082611c48565b67ffffffffffffffff8111156128f9576128f8611e39565b5b61290382546125cf565b61290e82828561284a565b600060209050601f831160018114612941576000841561292f578287015190505b61293985826128bb565b8655506129a1565b601f19841661294f8661272b565b60005b8281101561297757848901518255600182019150602085019450602081019050612952565b868310156129945784890151612990601f89168261289d565b8355505b6001600288020188555050505b505050505050565b6000815490506129b8816125cf565b9050919050565b8181036129cd575050612aa5565b6129d6826129a9565b67ffffffffffffffff8111156129ef576129ee611e39565b5b6129f982546125cf565b612a0482828561284a565b6000601f831160018114612a335760008415612a21578287015490505b612a2b85826128bb565b865550612a9e565b601f198416612a418761272b565b9650612a4c8661272b565b60005b82811015612a7457848901548255600182019150600185019450602081019050612a4f565b86831015612a915784890154612a8d601f89168261289d565b8355505b6001600288020188555050505b5050505050505b565b600060c0820190508181036000830152612ac18189611d5b565b9050612ad06020830188612222565b8181036040830152612ae28187611d5b565b90508181036060830152612af68186611d5b565b9050612b056080830185611da3565b81810360a0830152612b178184611d5b565b9050979650505050505050565b7f4e487b7100000000000000000000000000000000000000000000000000000000600052601160045260246000fd5b6000612b5e82611b95565b9150612b6983611b95565b9250828203905081811115612b8157612b80612b24565b5b92915050565b7f496e73756666696369656e742062616c00000000000000000000000000000000600082015250565b6000612bbd601083611d4a565b9150612bc882612b87565b602082019050919050565b60006020820190508181036000830152612bec81612bb0565b9050919050565b7f596f7520617265206e6f74207468652063726561746f72000000000000000000600082015250565b6000612c29601783611d4a565b9150612c3482612bf3565b602082019050919050565b60006020820190508181036000830152612c5881612c1c565b9050919050565b600081905092915050565b50565b6000612c7a600083612c5f565b9150612c8582612c6a565b600082019050919050565b6000612c9b82612c6d565b9150819050919050565b7f4661696c656420746f2073656e64204574686572000000000000000000000000600082015250565b6000612cdb601483611d4a565b9150612ce682612ca5565b602082019050919050565b60006020820190508181036000830152612d0a81612cce565b9050919050565b6000612d1c82611b95565b9150612d2783611b95565b9250828201905080821115612d3f57612d3e612b24565b5b92915050565b7f496e73756666696369656e742062616c616e6365210000000000000000000000600082015250565b6000612d7b601583611d4a565b9150612d8682612d45565b602082019050919050565b60006020820190508181036000830152612daa81612d6e565b9050919050565b6000604082019050612dc66000830185611da3565b8181036020830152612dd88184611d5b565b90509392505050565b7f4661696c656420746f2073656e64206574686572000000000000000000000000600082015250565b6000612e17601483611d4a565b9150612e2282612de1565b602082019050919050565b60006020820190508181036000830152612e4681612e0a565b905091905056fea26469706673582212201062b7230f52f51a1646d2c513fc04a662519a01c5e7c94a27f5aa60afac4de164736f6c63430008110033",
  "linkReferences": {},
  "deployedLinkReferences": {}
}