{
  "_format": "hh-sol-artifact-1",
  "contractName": "Donation",
  "sourceName": "contracts/Donation.sol",
  "abi": [
    {
      "inputs": [],
      "stateMutability": "payable",
      "type": "constructor"
    },
    {
      "inputs": [
        {
          "internalType": "string",
          "name": "message",
          "type": "string"
        }
      ],
      "name": "CreatorAlreadyExist",
      "type": "error"
    },
    {
      "anonymous": false,
      "inputs": [
        {
          "indexed": false,
          "internalType": "string",
          "name": "username",
          "type": "string"
        },
        {
          "indexed": false,
          "internalType": "address payable",
          "name": "walletAddress",
          "type": "address"
        },
        {
          "indexed": false,
          "internalType": "string",
          "name": "profilePix",
          "type": "string"
        },
        {
          "indexed": false,
          "internalType": "string",
          "name": "userbio",
          "type": "string"
        },
        {
          "indexed": false,
          "internalType": "uint256",
          "name": "donationsReceived",
          "type": "uint256"
        },
        {
          "indexed": false,
          "internalType": "string",
          "name": "networkOption",
          "type": "string"
        },
        {
          "indexed": false,
          "internalType": "uint256",
          "name": "supporters",
          "type": "uint256"
        }
      ],
      "name": "CreatorEvent",
      "type": "event"
    },
    {
      "anonymous": false,
      "inputs": [
        {
          "indexed": true,
          "internalType": "address",
          "name": "from",
          "type": "address"
        },
        {
          "indexed": false,
          "internalType": "uint256",
          "name": "timestamp",
          "type": "uint256"
        },
        {
          "indexed": false,
          "internalType": "string",
          "name": "message",
          "type": "string"
        }
      ],
      "name": "SupporterEvent",
      "type": "event"
    },
    {
      "inputs": [],
      "name": "contractBal",
      "outputs": [
        {
          "internalType": "uint256",
          "name": "",
          "type": "uint256"
        }
      ],
      "stateMutability": "view",
      "type": "function"
    },
    {
      "inputs": [],
      "name": "contractOwnerWithdraw",
      "outputs": [],
      "stateMutability": "nonpayable",
      "type": "function"
    },
    {
      "inputs": [
        {
          "internalType": "uint256",
          "name": "index",
          "type": "uint256"
        },
        {
          "internalType": "uint256",
          "name": "amount",
          "type": "uint256"
        }
      ],
      "name": "creatorWithdrawTip",
      "outputs": [],
      "stateMutability": "nonpayable",
      "type": "function"
    },
    {
      "inputs": [],
      "name": "getAllCreators",
      "outputs": [
        {
          "internalType": "uint256",
          "name": "",
          "type": "uint256"
        }
      ],
      "stateMutability": "view",
      "type": "function"
    },
    {
      "inputs": [
        {
          "internalType": "uint256",
          "name": "index",
          "type": "uint256"
        }
      ],
      "name": "getCreatorBal",
      "outputs": [
        {
          "internalType": "uint256",
          "name": "",
          "type": "uint256"
        }
      ],
      "stateMutability": "view",
      "type": "function"
    },
    {
      "inputs": [
        {
          "internalType": "uint256",
          "name": "index",
          "type": "uint256"
        }
      ],
      "name": "getCreatorInfo",
      "outputs": [
        {
          "internalType": "string",
          "name": "",
          "type": "string"
        },
        {
          "internalType": "string",
          "name": "",
          "type": "string"
        },
        {
          "internalType": "address",
          "name": "",
          "type": "address"
        },
        {
          "internalType": "string",
          "name": "",
          "type": "string"
        },
        {
          "internalType": "uint256",
          "name": "",
          "type": "uint256"
        },
        {
          "internalType": "string",
          "name": "",
          "type": "string"
        },
        {
          "internalType": "uint256",
          "name": "",
          "type": "uint256"
        }
      ],
      "stateMutability": "view",
      "type": "function"
    },
    {
      "inputs": [],
      "name": "getCreatorList",
      "outputs": [
        {
          "components": [
            {
              "internalType": "string",
              "name": "username",
              "type": "string"
            },
            {
              "internalType": "string",
              "name": "profilePix",
              "type": "string"
            },
            {
              "internalType": "address payable",
              "name": "walletAddress",
              "type": "address"
            },
            {
              "internalType": "string",
              "name": "userbio",
              "type": "string"
            },
            {
              "internalType": "uint256",
              "name": "donationsReceived",
              "type": "uint256"
            },
            {
              "internalType": "bool",
              "name": "isExist",
              "type": "bool"
            },
            {
              "internalType": "string",
              "name": "networkOption",
              "type": "string"
            },
            {
              "internalType": "uint256",
              "name": "supporters",
              "type": "uint256"
            }
          ],
          "internalType": "struct Donation.CreatorInfo[]",
          "name": "",
          "type": "tuple[]"
        }
      ],
      "stateMutability": "view",
      "type": "function"
    },
    {
      "inputs": [
        {
          "internalType": "uint256",
          "name": "_index",
          "type": "uint256"
        }
      ],
      "name": "getCreatorObj",
      "outputs": [
        {
          "components": [
            {
              "internalType": "string",
              "name": "username",
              "type": "string"
            },
            {
              "internalType": "string",
              "name": "profilePix",
              "type": "string"
            },
            {
              "internalType": "address payable",
              "name": "walletAddress",
              "type": "address"
            },
            {
              "internalType": "string",
              "name": "userbio",
              "type": "string"
            },
            {
              "internalType": "uint256",
              "name": "donationsReceived",
              "type": "uint256"
            },
            {
              "internalType": "bool",
              "name": "isExist",
              "type": "bool"
            },
            {
              "internalType": "string",
              "name": "networkOption",
              "type": "string"
            },
            {
              "internalType": "uint256",
              "name": "supporters",
              "type": "uint256"
            }
          ],
          "internalType": "struct Donation.CreatorInfo",
          "name": "",
          "type": "tuple"
        }
      ],
      "stateMutability": "view",
      "type": "function"
    },
    {
      "inputs": [
        {
          "internalType": "uint256",
          "name": "index",
          "type": "uint256"
        }
      ],
      "name": "getSupportInfo",
      "outputs": [
        {
          "internalType": "address",
          "name": "_from",
          "type": "address"
        },
        {
          "internalType": "uint256",
          "name": "_timestamp",
          "type": "uint256"
        },
        {
          "internalType": "string",
          "name": "_message",
          "type": "string"
        }
      ],
      "stateMutability": "view",
      "type": "function"
    },
    {
      "inputs": [],
      "name": "getSupporterList",
      "outputs": [
        {
          "components": [
            {
              "internalType": "address",
              "name": "from",
              "type": "address"
            },
            {
              "internalType": "uint256",
              "name": "timestamp",
              "type": "uint256"
            },
            {
              "internalType": "string",
              "name": "message",
              "type": "string"
            }
          ],
          "internalType": "struct Donation.Supporter[]",
          "name": "",
          "type": "tuple[]"
        }
      ],
      "stateMutability": "view",
      "type": "function"
    },
    {
      "inputs": [
        {
          "internalType": "uint256",
          "name": "_index",
          "type": "uint256"
        }
      ],
      "name": "getSupporterObj",
      "outputs": [
        {
          "components": [
            {
              "internalType": "address",
              "name": "from",
              "type": "address"
            },
            {
              "internalType": "uint256",
              "name": "timestamp",
              "type": "uint256"
            },
            {
              "internalType": "string",
              "name": "message",
              "type": "string"
            }
          ],
          "internalType": "struct Donation.Supporter",
          "name": "",
          "type": "tuple"
        }
      ],
      "stateMutability": "view",
      "type": "function"
    },
    {
      "inputs": [],
      "name": "getSupporters",
      "outputs": [
        {
          "internalType": "uint256",
          "name": "",
          "type": "uint256"
        }
      ],
      "stateMutability": "view",
      "type": "function"
    },
    {
      "inputs": [],
      "name": "owner",
      "outputs": [
        {
          "internalType": "address payable",
          "name": "",
          "type": "address"
        }
      ],
      "stateMutability": "view",
      "type": "function"
    },
    {
      "inputs": [
        {
          "internalType": "string",
          "name": "_message",
          "type": "string"
        },
        {
          "internalType": "uint256",
          "name": "_index",
          "type": "uint256"
        }
      ],
      "name": "sendTip",
      "outputs": [],
      "stateMutability": "payable",
      "type": "function"
    },
    {
      "inputs": [
        {
          "internalType": "string",
          "name": "username",
          "type": "string"
        },
        {
          "internalType": "string",
          "name": "profilePix",
          "type": "string"
        },
        {
          "internalType": "string",
          "name": "userbio",
          "type": "string"
        },
        {
          "internalType": "string",
          "name": "networkOption",
          "type": "string"
        }
      ],
      "name": "setCreatorDetail",
      "outputs": [],
      "stateMutability": "nonpayable",
      "type": "function"
    }
  ],
  "bytecode": "0x6080604052336000806101000a81548173ffffffffffffffffffffffffffffffffffffffff021916908373ffffffffffffffffffffffffffffffffffffffff160217905550612f28806100536000396000f3fe6080604052600436106100e85760003560e01c80638da5cb5b1161008a578063d9088afc11610059578063d9088afc14610303578063db9020eb1461031a578063e0a57eb814610345578063f97fac4d14610382576100e8565b80638da5cb5b14610266578063c580ec0a14610291578063c92d7231146102ad578063c9cd30a0146102d8576100e8565b80633985d500116100c65780633985d5001461019657806343020b1a146101d55780634af498a214610200578063746614a81461023d576100e8565b806305860bdc146100ed5780632516f8e61461012a57806325e860a51461016d575b600080fd5b3480156100f957600080fd5b50610114600480360381019061010f9190611c6b565b6103ad565b6040516101219190611dc8565b60405180910390f35b34801561013657600080fd5b50610151600480360381019061014c9190611c6b565b6104db565b6040516101649796959493929190611e52565b60405180910390f35b34801561017957600080fd5b50610194600480360381019061018f9190612012565b610796565b005b3480156101a257600080fd5b506101bd60048036038101906101b89190611c6b565b610dee565b6040516101cc939291906120e9565b60405180910390f35b3480156101e157600080fd5b506101ea610ee1565b6040516101f79190612127565b60405180910390f35b34801561020c57600080fd5b5061022760048036038101906102229190611c6b565b610eee565b6040516102349190612243565b60405180910390f35b34801561024957600080fd5b50610264600480360381019061025f9190612265565b6111f8565b005b34801561027257600080fd5b5061027b6113f1565b60405161028891906122b4565b60405180910390f35b6102ab60048036038101906102a691906122cf565b611415565b005b3480156102b957600080fd5b506102c26115ea565b6040516102cf91906124b2565b60405180910390f35b3480156102e457600080fd5b506102ed611917565b6040516102fa9190612127565b60405180910390f35b34801561030f57600080fd5b5061031861191f565b005b34801561032657600080fd5b5061032f6119f5565b60405161033c91906125e6565b60405180910390f35b34801561035157600080fd5b5061036c60048036038101906103679190611c6b565b611b46565b6040516103799190612127565b60405180910390f35b34801561038e57600080fd5b50610397611b80565b6040516103a49190612127565b60405180910390f35b6103b5611b8d565b600382815481106103c9576103c8612608565b5b90600052602060002090600302016040518060600160405290816000820160009054906101000a900473ffffffffffffffffffffffffffffffffffffffff1673ffffffffffffffffffffffffffffffffffffffff1673ffffffffffffffffffffffffffffffffffffffff1681526020016001820154815260200160028201805461045290612666565b80601f016020809104026020016040519081016040528092919081815260200182805461047e90612666565b80156104cb5780601f106104a0576101008083540402835291602001916104cb565b820191906000526020600020905b8154815290600101906020018083116104ae57829003601f168201915b5050505050815250509050919050565b6060806000606060006060600080600489815481106104fd576104fc612608565b5b9060005260206000209060080201905080600001816001018260020160009054906101000a900473ffffffffffffffffffffffffffffffffffffffff1683600301846004015485600601866007015486805461055890612666565b80601f016020809104026020016040519081016040528092919081815260200182805461058490612666565b80156105d15780601f106105a6576101008083540402835291602001916105d1565b820191906000526020600020905b8154815290600101906020018083116105b457829003601f168201915b505050505096508580546105e490612666565b80601f016020809104026020016040519081016040528092919081815260200182805461061090612666565b801561065d5780601f106106325761010080835404028352916020019161065d565b820191906000526020600020905b81548152906001019060200180831161064057829003601f168201915b5050505050955083805461067090612666565b80601f016020809104026020016040519081016040528092919081815260200182805461069c90612666565b80156106e95780601f106106be576101008083540402835291602001916106e9565b820191906000526020600020905b8154815290600101906020018083116106cc57829003601f168201915b505050505093508180546106fc90612666565b80601f016020809104026020016040519081016040528092919081815260200182805461072890612666565b80156107755780601f1061074a57610100808354040283529160200191610775565b820191906000526020600020905b81548152906001019060200180831161075857829003601f168201915b50505050509150975097509750975097509750975050919395979092949650565b60008060001515600160003373ffffffffffffffffffffffffffffffffffffffff1673ffffffffffffffffffffffffffffffffffffffff16815260200190815260200160002060050160009054906101000a900460ff1615151461082f576040517f2c95b940000000000000000000000000000000000000000000000000000000008152600401610826906126e3565b60405180910390fd5b60001515600287604051610843919061273f565b908152602001604051809103902060050160009054906101000a900460ff161515146108a4576040517f2c95b94000000000000000000000000000000000000000000000000000000000815260040161089b906127a2565b60405180910390fd5b60046040518061010001604052808881526020018781526020013373ffffffffffffffffffffffffffffffffffffffff16815260200186815260200184815260200160011515815260200185815260200183815250600160003373ffffffffffffffffffffffffffffffffffffffff1673ffffffffffffffffffffffffffffffffffffffff168152602001908152602001600020600082015181600001908161094d919061296e565b506020820151816001019081610963919061296e565b5060408201518160020160006101000a81548173ffffffffffffffffffffffffffffffffffffffff021916908373ffffffffffffffffffffffffffffffffffffffff16021790555060608201518160030190816109c0919061296e565b506080820151816004015560a08201518160050160006101000a81548160ff02191690831515021790555060c0820151816006019081610a00919061296e565b5060e082015181600701559050908060018154018082558091505060019003906000526020600020906008020160009091909190915060008201816000019081610a4a9190612a56565b5060018201816001019081610a5f9190612a56565b506002820160009054906101000a900473ffffffffffffffffffffffffffffffffffffffff168160020160006101000a81548173ffffffffffffffffffffffffffffffffffffffff021916908373ffffffffffffffffffffffffffffffffffffffff16021790555060038201816003019081610adb9190612a56565b50600482015481600401556005820160009054906101000a900460ff168160050160006101000a81548160ff02191690831515021790555060068201816006019081610b279190612a56565b5060078201548160070155505060046040518061010001604052808881526020018781526020013373ffffffffffffffffffffffffffffffffffffffff16815260200186815260200184815260200160011515815260200185815260200183815250600288604051610b99919061273f565b90815260200160405180910390206000820151816000019081610bbc919061296e565b506020820151816001019081610bd2919061296e565b5060408201518160020160006101000a81548173ffffffffffffffffffffffffffffffffffffffff021916908373ffffffffffffffffffffffffffffffffffffffff1602179055506060820151816003019081610c2f919061296e565b506080820151816004015560a08201518160050160006101000a81548160ff02191690831515021790555060c0820151816006019081610c6f919061296e565b5060e082015181600701559050908060018154018082558091505060019003906000526020600020906008020160009091909190915060008201816000019081610cb99190612a56565b5060018201816001019081610cce9190612a56565b506002820160009054906101000a900473ffffffffffffffffffffffffffffffffffffffff168160020160006101000a81548173ffffffffffffffffffffffffffffffffffffffff021916908373ffffffffffffffffffffffffffffffffffffffff16021790555060038201816003019081610d4a9190612a56565b50600482015481600401556005820160009054906101000a900460ff168160050160006101000a81548160ff02191690831515021790555060068201816006019081610d969190612a56565b506007820154816007015550507fed7c5f231e4c74b83ce175238e860104e5bba94ba166c4c3bdb1ec80d0caca8086338787868887604051610dde9796959493929190612b3e565b60405180910390a1505050505050565b6000806060600060038581548110610e0957610e08612608565b5b906000526020600020906003020190508060000160009054906101000a900473ffffffffffffffffffffffffffffffffffffffff16816001015482600201808054610e5390612666565b80601f0160208091040260200160405190810160405280929190818152602001828054610e7f90612666565b8015610ecc5780601f10610ea157610100808354040283529160200191610ecc565b820191906000526020600020905b815481529060010190602001808311610eaf57829003601f168201915b50505050509050935093509350509193909250565b6000600380549050905090565b610ef6611bc4565b60048281548110610f0a57610f09612608565b5b906000526020600020906008020160405180610100016040529081600082018054610f3490612666565b80601f0160208091040260200160405190810160405280929190818152602001828054610f6090612666565b8015610fad5780601f10610f8257610100808354040283529160200191610fad565b820191906000526020600020905b815481529060010190602001808311610f9057829003601f168201915b50505050508152602001600182018054610fc690612666565b80601f0160208091040260200160405190810160405280929190818152602001828054610ff290612666565b801561103f5780601f106110145761010080835404028352916020019161103f565b820191906000526020600020905b81548152906001019060200180831161102257829003601f168201915b505050505081526020016002820160009054906101000a900473ffffffffffffffffffffffffffffffffffffffff1673ffffffffffffffffffffffffffffffffffffffff1673ffffffffffffffffffffffffffffffffffffffff1681526020016003820180546110ae90612666565b80601f01602080910402602001604051908101604052809291908181526020018280546110da90612666565b80156111275780601f106110fc57610100808354040283529160200191611127565b820191906000526020600020905b81548152906001019060200180831161110a57829003601f168201915b50505050508152602001600482015481526020016005820160009054906101000a900460ff1615151515815260200160068201805461116590612666565b80601f016020809104026020016040519081016040528092919081815260200182805461119190612666565b80156111de5780601f106111b3576101008083540402835291602001916111de565b820191906000526020600020905b8154815290600101906020018083116111c157829003601f168201915b505050505081526020016007820154815250509050919050565b60006004838154811061120e5761120d612608565b5b9060005260206000209060080201905060008160040154905060008260020160009054906101000a900473ffffffffffffffffffffffffffffffffffffffff169050836004868154811061126557611264612608565b5b906000526020600020906008020160040160008282546112859190612bf8565b92505081905550818411156112cf576040517f08c379a00000000000000000000000000000000000000000000000000000000081526004016112c690612c78565b60405180910390fd5b8073ffffffffffffffffffffffffffffffffffffffff163373ffffffffffffffffffffffffffffffffffffffff161461133d576040517f08c379a000000000000000000000000000000000000000000000000000000000815260040161133490612ce4565b60405180910390fd5b60008173ffffffffffffffffffffffffffffffffffffffff168560405161136390612d35565b60006040518083038185875af1925050503d80600081146113a0576040519150601f19603f3d011682016040523d82523d6000602084013e6113a5565b606091505b50509050806113e9576040517f08c379a00000000000000000000000000000000000000000000000000000000081526004016113e090612d96565b60405180910390fd5b505050505050565b60008054906101000a900473ffffffffffffffffffffffffffffffffffffffff1681565b346004828154811061142a57611429612608565b5b9060005260206000209060080201600401600082825461144a9190612db6565b9250508190555060016004828154811061146757611466612608565b5b906000526020600020906008020160070160008282546114879190612db6565b92505081905550600034116114d1576040517f08c379a00000000000000000000000000000000000000000000000000000000081526004016114c890612e36565b60405180910390fd5b600360405180606001604052803373ffffffffffffffffffffffffffffffffffffffff16815260200142815260200184815250908060018154018082558091505060019003906000526020600020906003020160009091909190915060008201518160000160006101000a81548173ffffffffffffffffffffffffffffffffffffffff021916908373ffffffffffffffffffffffffffffffffffffffff160217905550602082015181600101556040820151816002019081611593919061296e565b5050503373ffffffffffffffffffffffffffffffffffffffff167fd6a897edbe2f5bae63386e323f717069a8974221d9297299ac544cace2d0f99242846040516115de929190612e56565b60405180910390a25050565b60606004805480602002602001604051908101604052809291908181526020016000905b8282101561190e57838290600052602060002090600802016040518061010001604052908160008201805461164290612666565b80601f016020809104026020016040519081016040528092919081815260200182805461166e90612666565b80156116bb5780601f10611690576101008083540402835291602001916116bb565b820191906000526020600020905b81548152906001019060200180831161169e57829003601f168201915b505050505081526020016001820180546116d490612666565b80601f016020809104026020016040519081016040528092919081815260200182805461170090612666565b801561174d5780601f106117225761010080835404028352916020019161174d565b820191906000526020600020905b81548152906001019060200180831161173057829003601f168201915b505050505081526020016002820160009054906101000a900473ffffffffffffffffffffffffffffffffffffffff1673ffffffffffffffffffffffffffffffffffffffff1673ffffffffffffffffffffffffffffffffffffffff1681526020016003820180546117bc90612666565b80601f01602080910402602001604051908101604052809291908181526020018280546117e890612666565b80156118355780601f1061180a57610100808354040283529160200191611835565b820191906000526020600020905b81548152906001019060200180831161181857829003601f168201915b50505050508152602001600482015481526020016005820160009054906101000a900460ff1615151515815260200160068201805461187390612666565b80601f016020809104026020016040519081016040528092919081815260200182805461189f90612666565b80156118ec5780601f106118c1576101008083540402835291602001916118ec565b820191906000526020600020905b8154815290600101906020018083116118cf57829003601f168201915b505050505081526020016007820154815250508152602001906001019061160e565b50505050905090565b600047905090565b600047905060008060009054906101000a900473ffffffffffffffffffffffffffffffffffffffff1673ffffffffffffffffffffffffffffffffffffffff168260405161196b90612d35565b60006040518083038185875af1925050503d80600081146119a8576040519150601f19603f3d011682016040523d82523d6000602084013e6119ad565b606091505b50509050806119f1576040517f08c379a00000000000000000000000000000000000000000000000000000000081526004016119e890612ed2565b60405180910390fd5b5050565b60606003805480602002602001604051908101604052809291908181526020016000905b82821015611b3d57838290600052602060002090600302016040518060600160405290816000820160009054906101000a900473ffffffffffffffffffffffffffffffffffffffff1673ffffffffffffffffffffffffffffffffffffffff1673ffffffffffffffffffffffffffffffffffffffff16815260200160018201548152602001600282018054611aac90612666565b80601f0160208091040260200160405190810160405280929190818152602001828054611ad890612666565b8015611b255780601f10611afa57610100808354040283529160200191611b25565b820191906000526020600020905b815481529060010190602001808311611b0857829003601f168201915b50505050508152505081526020019060010190611a19565b50505050905090565b60008060048381548110611b5d57611b5c612608565b5b906000526020600020906008020190506000816004015490508092505050919050565b6000600480549050905090565b6040518060600160405280600073ffffffffffffffffffffffffffffffffffffffff16815260200160008152602001606081525090565b6040518061010001604052806060815260200160608152602001600073ffffffffffffffffffffffffffffffffffffffff168152602001606081526020016000815260200160001515815260200160608152602001600081525090565b6000604051905090565b600080fd5b600080fd5b6000819050919050565b611c4881611c35565b8114611c5357600080fd5b50565b600081359050611c6581611c3f565b92915050565b600060208284031215611c8157611c80611c2b565b5b6000611c8f84828501611c56565b91505092915050565b600073ffffffffffffffffffffffffffffffffffffffff82169050919050565b6000611cc382611c98565b9050919050565b611cd381611cb8565b82525050565b611ce281611c35565b82525050565b600081519050919050565b600082825260208201905092915050565b60005b83811015611d22578082015181840152602081019050611d07565b60008484015250505050565b6000601f19601f8301169050919050565b6000611d4a82611ce8565b611d548185611cf3565b9350611d64818560208601611d04565b611d6d81611d2e565b840191505092915050565b6000606083016000830151611d906000860182611cca565b506020830151611da36020860182611cd9565b5060408301518482036040860152611dbb8282611d3f565b9150508091505092915050565b60006020820190508181036000830152611de28184611d78565b905092915050565b600082825260208201905092915050565b6000611e0682611ce8565b611e108185611dea565b9350611e20818560208601611d04565b611e2981611d2e565b840191505092915050565b611e3d81611cb8565b82525050565b611e4c81611c35565b82525050565b600060e0820190508181036000830152611e6c818a611dfb565b90508181036020830152611e808189611dfb565b9050611e8f6040830188611e34565b8181036060830152611ea18187611dfb565b9050611eb06080830186611e43565b81810360a0830152611ec28185611dfb565b9050611ed160c0830184611e43565b98975050505050505050565b600080fd5b600080fd5b7f4e487b7100000000000000000000000000000000000000000000000000000000600052604160045260246000fd5b611f1f82611d2e565b810181811067ffffffffffffffff82111715611f3e57611f3d611ee7565b5b80604052505050565b6000611f51611c21565b9050611f5d8282611f16565b919050565b600067ffffffffffffffff821115611f7d57611f7c611ee7565b5b611f8682611d2e565b9050602081019050919050565b82818337600083830152505050565b6000611fb5611fb084611f62565b611f47565b905082815260208101848484011115611fd157611fd0611ee2565b5b611fdc848285611f93565b509392505050565b600082601f830112611ff957611ff8611edd565b5b8135612009848260208601611fa2565b91505092915050565b6000806000806080858703121561202c5761202b611c2b565b5b600085013567ffffffffffffffff81111561204a57612049611c30565b5b61205687828801611fe4565b945050602085013567ffffffffffffffff81111561207757612076611c30565b5b61208387828801611fe4565b935050604085013567ffffffffffffffff8111156120a4576120a3611c30565b5b6120b087828801611fe4565b925050606085013567ffffffffffffffff8111156120d1576120d0611c30565b5b6120dd87828801611fe4565b91505092959194509250565b60006060820190506120fe6000830186611e34565b61210b6020830185611e43565b818103604083015261211d8184611dfb565b9050949350505050565b600060208201905061213c6000830184611e43565b92915050565b600061214d82611c98565b9050919050565b61215d81612142565b82525050565b60008115159050919050565b61217881612163565b82525050565b600061010083016000830151848203600086015261219c8282611d3f565b915050602083015184820360208601526121b68282611d3f565b91505060408301516121cb6040860182612154565b50606083015184820360608601526121e38282611d3f565b91505060808301516121f86080860182611cd9565b5060a083015161220b60a086018261216f565b5060c083015184820360c08601526122238282611d3f565b91505060e083015161223860e0860182611cd9565b508091505092915050565b6000602082019050818103600083015261225d818461217e565b905092915050565b6000806040838503121561227c5761227b611c2b565b5b600061228a85828601611c56565b925050602061229b85828601611c56565b9150509250929050565b6122ae81612142565b82525050565b60006020820190506122c960008301846122a5565b92915050565b600080604083850312156122e6576122e5611c2b565b5b600083013567ffffffffffffffff81111561230457612303611c30565b5b61231085828601611fe4565b925050602061232185828601611c56565b9150509250929050565b600081519050919050565b600082825260208201905092915050565b6000819050602082019050919050565b60006101008301600083015184820360008601526123758282611d3f565b9150506020830151848203602086015261238f8282611d3f565b91505060408301516123a46040860182612154565b50606083015184820360608601526123bc8282611d3f565b91505060808301516123d16080860182611cd9565b5060a08301516123e460a086018261216f565b5060c083015184820360c08601526123fc8282611d3f565b91505060e083015161241160e0860182611cd9565b508091505092915050565b60006124288383612357565b905092915050565b6000602082019050919050565b60006124488261232b565b6124528185612336565b93508360208202850161246485612347565b8060005b858110156124a05784840389528151612481858261241c565b945061248c83612430565b925060208a01995050600181019050612468565b50829750879550505050505092915050565b600060208201905081810360008301526124cc818461243d565b905092915050565b600081519050919050565b600082825260208201905092915050565b6000819050602082019050919050565b60006060830160008301516125186000860182611cca565b50602083015161252b6020860182611cd9565b50604083015184820360408601526125438282611d3f565b9150508091505092915050565b600061255c8383612500565b905092915050565b6000602082019050919050565b600061257c826124d4565b61258681856124df565b935083602082028501612598856124f0565b8060005b858110156125d457848403895281516125b58582612550565b94506125c083612564565b925060208a0199505060018101905061259c565b50829750879550505050505092915050565b600060208201905081810360008301526126008184612571565b905092915050565b7f4e487b7100000000000000000000000000000000000000000000000000000000600052603260045260246000fd5b7f4e487b7100000000000000000000000000000000000000000000000000000000600052602260045260246000fd5b6000600282049050600182168061267e57607f821691505b60208210810361269157612690612637565b5b50919050565b7f4163636f756e7420616c72656164792065786973740000000000000000000000600082015250565b60006126cd601583611dea565b91506126d882612697565b602082019050919050565b600060208201905081810360008301526126fc816126c0565b9050919050565b600081905092915050565b600061271982611ce8565b6127238185612703565b9350612733818560208601611d04565b80840191505092915050565b600061274b828461270e565b915081905092915050565b7f557365726e616d6520616c726561647920657869737400000000000000000000600082015250565b600061278c601683611dea565b915061279782612756565b602082019050919050565b600060208201905081810360008301526127bb8161277f565b9050919050565b60008190508160005260206000209050919050565b60006020601f8301049050919050565b600082821b905092915050565b6000600883026128247fffffffffffffffffffffffffffffffffffffffffffffffffffffffffffffffff826127e7565b61282e86836127e7565b95508019841693508086168417925050509392505050565b6000819050919050565b600061286b61286661286184611c35565b612846565b611c35565b9050919050565b6000819050919050565b61288583612850565b61289961289182612872565b8484546127f4565b825550505050565b600090565b6128ae6128a1565b6128b981848461287c565b505050565b5b818110156128dd576128d26000826128a6565b6001810190506128bf565b5050565b601f821115612922576128f3816127c2565b6128fc846127d7565b8101602085101561290b578190505b61291f612917856127d7565b8301826128be565b50505b505050565b600082821c905092915050565b600061294560001984600802612927565b1980831691505092915050565b600061295e8383612934565b9150826002028217905092915050565b61297782611ce8565b67ffffffffffffffff8111156129905761298f611ee7565b5b61299a8254612666565b6129a58282856128e1565b600060209050601f8311600181146129d857600084156129c6578287015190505b6129d08582612952565b865550612a38565b601f1984166129e6866127c2565b60005b82811015612a0e578489015182556001820191506020850194506020810190506129e9565b86831015612a2b5784890151612a27601f891682612934565b8355505b6001600288020188555050505b505050505050565b600081549050612a4f81612666565b9050919050565b818103612a64575050612b3c565b612a6d82612a40565b67ffffffffffffffff811115612a8657612a85611ee7565b5b612a908254612666565b612a9b8282856128e1565b6000601f831160018114612aca5760008415612ab8578287015490505b612ac28582612952565b865550612b35565b601f198416612ad8876127c2565b9650612ae3866127c2565b60005b82811015612b0b57848901548255600182019150600185019450602081019050612ae6565b86831015612b285784890154612b24601f891682612934565b8355505b6001600288020188555050505b5050505050505b565b600060e0820190508181036000830152612b58818a611dfb565b9050612b6760208301896122a5565b8181036040830152612b798188611dfb565b90508181036060830152612b8d8187611dfb565b9050612b9c6080830186611e43565b81810360a0830152612bae8185611dfb565b9050612bbd60c0830184611e43565b98975050505050505050565b7f4e487b7100000000000000000000000000000000000000000000000000000000600052601160045260246000fd5b6000612c0382611c35565b9150612c0e83611c35565b9250828203905081811115612c2657612c25612bc9565b5b92915050565b7f496e73756666696369656e742062616c00000000000000000000000000000000600082015250565b6000612c62601083611dea565b9150612c6d82612c2c565b602082019050919050565b60006020820190508181036000830152612c9181612c55565b9050919050565b7f596f7520617265206e6f74207468652063726561746f72000000000000000000600082015250565b6000612cce601783611dea565b9150612cd982612c98565b602082019050919050565b60006020820190508181036000830152612cfd81612cc1565b9050919050565b600081905092915050565b50565b6000612d1f600083612d04565b9150612d2a82612d0f565b600082019050919050565b6000612d4082612d12565b9150819050919050565b7f4661696c656420746f2073656e64204574686572000000000000000000000000600082015250565b6000612d80601483611dea565b9150612d8b82612d4a565b602082019050919050565b60006020820190508181036000830152612daf81612d73565b9050919050565b6000612dc182611c35565b9150612dcc83611c35565b9250828201905080821115612de457612de3612bc9565b5b92915050565b7f496e73756666696369656e742062616c616e6365210000000000000000000000600082015250565b6000612e20601583611dea565b9150612e2b82612dea565b602082019050919050565b60006020820190508181036000830152612e4f81612e13565b9050919050565b6000604082019050612e6b6000830185611e43565b8181036020830152612e7d8184611dfb565b90509392505050565b7f4661696c656420746f2073656e64206574686572000000000000000000000000600082015250565b6000612ebc601483611dea565b9150612ec782612e86565b602082019050919050565b60006020820190508181036000830152612eeb81612eaf565b905091905056fea2646970667358221220faa1bd5aa518073cb55eeb7afe9adeda89bf3382189ed1b656a853e974a3a81a64736f6c63430008110033",
  "linkReferences": {},
  "deployedLinkReferences": {}
}